:1000000025C100005EC6000031C6000004C6000025
:10001000D7C50000AAC500007DC5000050C500007E
:1000200023C5000044C1000042C1000040C10000DF
:100030003EC100000C94110A0C940C0A0C942E0A78
:1000400036C100000C94060A0C94040A0C94020AAF
:100050000C94080A2CC100002AC10000BBC4000097
:1000600026C1000085C300005AC3000020C1000063
:100070001EC100001CC100001AC1000018C1000010
:100080000C94ED090C94E3090C94D9090C94F7092C
:100090000EC100000CC100000AC100003DC60000F6
:1000A00006C1000004C100000C94CF090C94C509DE
:1000B0000C94BB090C94AB09FAC000000C94A10984
:1000C0000C9497090C948D090C948309FFC20000CD
:1000D000D4C20000ECC00000EAC00000E8C000008C
:1000E000E6C00000690B6C0B5B0B5F0B630BA30B93
:1000F000700B740B7A0B7E0B820B880B8C0B900BA6
:10010000A30B960B9A0B9E0B4E414E494E495459E8
:10011000494E46CDCCCC3D0AD7233C17B7D13877D2
:10012000CC2B329595E6241FB14F0A0000204100E8
:1001300000C84200401C4620BCBE4CCA1B0E5AAE32
:10014000C59D7400002100240027002A002D0030E6
:1001500000330001010000040107010A0100002230
:1001600000250028002B002E003100340002010081
:1001700000050108010B010505050507050808082C
:1001800008020202020A0A08080404040401010128
:100190000101010101030303030303030304070730
:1001A000070C0C0C0C0C0C0C0C02020202060606CE
:1001B00006060606060B0B0B0B0B0B0B0B010210B6
:1001C0002020080810204010204080020102010871
:1001D0000402010102040810204080804020100821
:1001E000040201800402018040201008040201087A
:1001F00004020101020408102040800102040810DA
:1002000020408000000A0B02090C0D0E08070304B1
:1002100001000000000000000000000000000000DD
:1002200000000000000000000000000000000012BC
:10023000111000000000000000000000000000009D
:10024000000000000000000000000C1411241FBE7C
:10025000CFEFD1E2DEBFCDBF00E00CBF27E0A2EBC5
:10026000B3E001C01D92AD39B207E1F713E0A0E0A1
:10027000B2E0EEE0F3E300E00BBF02C007900D92A6
:10028000A23BB107D9F711E0C6E2D1E000E006C019
:1002900021970109802FFE010E945F19C532D10705
:1002A00080E00807A9F70E94FB0C0C948519A8CEE2
:1002B000FC01A089B1898C91A689B78982FD0FC004
:1002C0009C91818D8F5F8F73228D821749F0218DD4
:1002D000DF01A20FB11D5D969C93818F08958C91D3
:1002E0000895FC01538D448D252F30E0842F90E03C
:1002F000821B930B541710F0CF9608950197089521
:10030000FC01918D828D981761F0828DDF01A80F1D
:10031000B11D5D968C91928D9F5F9F73928F90E03F
:1003200008958FEF9FEF0895FC01918D828D9817AE
:1003300031F0828DE80FF11D858D90E008958FEFEB
:100340009FEF0895FC01918D228D892F90E0805CB4
:100350009F4F821B91098F73992708958BE994E031
:10036000F1DF21E0892B09F420E0822F089588E352
:1003700095E0E8DF21E0892B09F420E0822F089541
:10038000FC01848DDF01A80FB11DA35ABF4F2C9132
:10039000848D90E001968F739927848FA689B78901
:1003A0002C93A089B1898C9180648C93938D848DDA
:1003B000981306C00288F389E02D80818F7D8083A9
:1003C0000895EF92FF920F931F93CF93DF93EC0169
:1003D00081E0888F9B8D8C8D981305C0E889F98901
:1003E000808185FD23C0F62E0B8D10E00F5F1F4F1F
:1003F0000F731127E02E8C8DE8120BC00FB607FC8F
:10040000FACFE889F989808185FFF5CFCE01B8DF81
:10041000F2CF8B8DFE01E80FF11DE35AFF4FF08202
:100420000B8FEA89FB898081806207C0EE89FF8992
:100430006083E889F98980818064808381E090E02D
:10044000DF91CF911F910F91FF90EF900895CF937F
:10045000DF93EC01888D8823C1F0EA89FB898081D4
:1004600085FD05C0A889B9898C9186FD0EC00FB69F
:1004700007FCF5CF808185FFF2CFA889B9898C91DF
:1004800085FFEDCFCE017CDFE8CFDF91CF910895DE
:1004900080E090E0892B19F06ADF811120C080E0B4
:1004A00090E0892B41F080E090E0892B21F00E94C0
:1004B0000000811117C080E090E0892B19F04EDF19
:1004C000811113C080E090E0892BA1F080E090E0E2
:1004D000892B81F00E94000081110AC008950E94BA
:1004E0000000DDCF0E940000E6CF0E940000EACFAE
:1004F0000C9400000895089585ED8093BC008091D0
:10050000BC0084FDFCCF1092770408954091010453
:10051000262F30E0240F311D21323105DCF42091EB
:1005200077042430C9F4FC0180E090E0861758F489
:10053000309101042191DC01A152BC4FA30FB11DE8
:100540002C930196F3CF80910104680F609301040E
:1005500080E0089581E0089582E008950895E09193
:10056000300480912F04E81730F4F0E0EF5CFB4F8B
:10057000808190E008958FEF9FEF0895909130046F
:1005800080912F04981750F4E92FF0E0EF5CFB4FB7
:10059000208130E09F5F9093300402C02FEF3FEF47
:1005A000C901089580912F0490E020913004821BAE
:1005B00091090895CF92DF92EF92FF920F931F93CC
:1005C000CF93DF937C01262F972F8A0180919A0485
:1005D000882391F0C62FD72F6E01C40ED51ECC15DF
:1005E000DD0569F06991D701ED91FC910190F081F1
:1005F000E02DC7011995F3CF642F822F87DFC80143
:10060000DF91CF911F910F91FF90EF90DF90CF90EE
:100610000895CF93DF931F92CDB7DEB76983209102
:100620009A042223D1F020919804203240F021E056
:1006300030E0FC013383228380E090E014C080919D
:100640009904E82FF0E0E858FB4F998190838F5F81
:10065000809399048093980404C061E0CE010196D0
:1006600055DF81E090E00F90DF91CF9108950895DC
:1006700080E090E008950E9467191F920F920FB6D4
:100680000F9211240BB60F922F933F934F935F93CA
:100690006F937F938F939F93AF93BF93EF93FF934A
:1006A0008BE994E06DDEFF91EF91BF91AF919F9147
:1006B0008F917F916F915F914F913F912F910F900B
:1006C0000BBE0F900FBE0F901F9018951F920F92A8
:1006D0000FB60F9211240BB60F922F933F934F93A7
:1006E0005F936F937F938F939F93AF93BF93EF939A
:1006F000FF938BE994E0DCDDFF91EF91BF91AF9127
:100700009F918F917F916F915F914F913F912F9129
:100710000F900BBE0F900FBE0F901F9018951F9259
:100720000F920FB60F9211240BB60F922F933F9397
:100730004F935F936F937F938F939F93AF93BF93E9
:10074000EF93FF9388E395E01BDEFF91EF91BF915C
:10075000AF919F918F917F916F915F914F913F9159
:100760002F910F900BBE0F900FBE0F901F901895FA
:100770001F920F920FB60F9211240BB60F922F9368
:100780003F934F935F936F937F938F939F93AF9319
:10079000BF93EF93FF9388E395E08ADDFF91EF919C
:1007A000BF91AF919F918F917F916F915F914F9189
:1007B0003F912F910F900BBE0F900FBE0F901F9087
:1007C00018953FB7F89480912B0490912C04A09138
:1007D0002D04B0912E0426B5A89B05C02F3F19F01B
:1007E0000196A11DB11D3FBFBA2FA92F982F8827B1
:1007F000820F911DA11DB11DBC01CD0142E0660F0C
:10080000771F881F991F4A95D1F70895DADF209145
:10081000DA033091DB03621B730BCB01855F9140E0
:100820008F3C9740F8F42091150230911602809188
:10083000250290912602820F931F860F971F63E077
:1008400070E00E9416198091150290911602909303
:10085000260280932502709316026093150281E0B0
:100860008093D903AEDF6093DA037093DB03809348
:10087000DC039093DD030895A4DF2091D50330912C
:10088000D603621B730BCB01855F91408F3C974071
:10089000F8F420911102309112028091230290917C
:1008A0002402820F931F860F971F63E070E00E945F
:1008B0001619809111029091120290932402809354
:1008C0002302709312026093110281E08093D4039B
:1008D00078DF6093D5037093D6038093D70390930A
:1008E000D80308956EDF2091D0033091D103621BAD
:1008F000730BCB01855F91408F3C9740F8F42091BA
:100900001702309118028091210290912202820FE9
:10091000931F860F971F63E070E00E941619809165
:1009200017029091180290932202809321027093F3
:1009300018026093170281E08093CF0342DF609337
:10094000D0037093D1038093D2039093D30308957F
:1009500038DF2091CB033091CC03621B730BCB01AA
:10096000855F91408F3C9740F8F4209113023091BD
:10097000140280911F0290912002820F931F860F14
:10098000971F63E070E00E94161980911302909106
:1009900014029093200280931F02709314026093BC
:1009A000130281E08093CA030CDF6093CB03709342
:1009B000CC038093CD039093CE0308952FB7F89482
:1009C00060912704709128048091290490912A0451
:1009D0002FBF08951F920F920FB60F9211242F93DD
:1009E0003F938F939F93AF93BF93809127049091F0
:1009F0002804A0912904B0912A043091260423E010
:100A0000230F2D3720F40196A11DB11D05C026E846
:100A1000230F0296A11DB11D209326048093270465
:100A200090932804A0932904B0932A0480912B0466
:100A300090912C04A0912D04B0912E040196A11D3B
:100A4000B11D80932B0490932C04A0932D04B0939C
:100A50002E04BF91AF919F918F913F912F910F9055
:100A60000FBE0F901F9018951F920F920FB60F9206
:100A700011240BB60F922F933F934F935F936F9375
:100A80007F938F939F93AF93BF93EF93FF93E091E7
:100A90000E02F0910F021995FF91EF91BF91AF9166
:100AA0009F918F917F916F915F914F913F912F9186
:100AB0000F900BBE0F900FBE0F901F9018951F92B6
:100AC0000F920FB60F9211240BB60F922F933F93F4
:100AD0004F935F936F937F938F939F93AF93BF9346
:100AE000EF93FF93E0910C02F0910D021995FF91A5
:100AF000EF91BF91AF919F918F917F916F915F9196
:100B00004F913F912F910F900BBE0F900FBE0F9002
:100B10001F9018951F920F920FB60F9211240BB6CB
:100B20000F922F933F934F935F936F937F938F9386
:100B30009F93AF93BF93EF93FF93E0910202F091E5
:100B400003021995FF91EF91BF91AF919F918F9102
:100B50007F916F915F914F913F912F910F900BBEBD
:100B60000F900FBE0F901F9018951F920F920FB607
:100B70000F9211240BB60F922F933F934F935F93D5
:100B80006F937F938F939F93AF93BF93EF93FF9355
:100B9000E0910002F09101021995FF91EF91BF9150
:100BA000AF919F918F917F916F915F914F913F9105
:100BB0002F910F900BBE0F900FBE0F901F901895A6
:100BC0001F920F920FB60F9211240BB60F922F9314
:100BD0003F934F935F936F937F938F939F93AF93C5
:100BE000BF93EF93FF93E0910A02F0910B021995E6
:100BF000FF91EF91BF91AF919F918F917F916F91F5
:100C00005F914F913F912F910F900BBE0F900FBEB0
:100C10000F901F9018951F920F920FB60F921124EC
:100C20000BB60F922F933F934F935F936F937F93E6
:100C30008F939F93AF93BF93EF93FF93E09108023D
:100C4000F09109021995FF91EF91BF91AF919F919A
:100C50008F917F916F915F914F913F912F910F9065
:100C60000BBE0F900FBE0F901F9018951F920F9202
:100C70000FB60F9211240BB60F922F933F934F9301
:100C80005F936F937F938F939F93AF93BF93EF93F4
:100C9000FF93E0910602F09107021995FF91EF9101
:100CA000BF91AF919F918F917F916F915F914F9184
:100CB0003F912F910F900BBE0F900FBE0F901F9082
:100CC00018951F920F920FB60F9211240BB60F9228
:100CD0002F933F934F935F936F937F938F939F9344
:100CE000AF93BF93EF93FF93E0910402F09105025D
:100CF0001995FF91EF91BF91AF919F918F917F9146
:100D00006F915F914F913F912F910F900BBE0F907C
:100D10000FBE0F901F9018951F920F920FB60F9253
:100D200011240BB60F922F933F934F935F936F93C2
:100D30007F938F939F93AF93BF93EF93FF93809194
:100D4000B900887F803609F49CC068F5883209F4C0
:100D50005BC090F4803109F454C038F4882309F45E
:100D6000F6C0883009F44DC0F5C0883109F44CC094
:100D7000803209F45DC0EEC0803409F468C048F4E4
:100D8000803309F455C0883309F0E4C080937504BA
:100D9000D8C0803509F44FC0883509F45DC0883467
:100DA00009F0D8C0D6C0883909F4C7C0A8F488377C
:100DB00009F467C038F4883609F463C0803709F451
:100DC00060C0C8C0883809F4B8C0803909F45FC071
:100DD000803809F0BFC05BC0803B09F486C038F49E
:100DE000803A09F466C0883A09F47FC0B3C0803CF9
:100DF00009F4A7C0883C09F4A4C0883B09F48AC060
:100E0000A9C08091520410C0909174048091730421
:100E1000981770F5E091740481E08E0F809374044C
:100E2000F0E0ED5AFB4F80818093BB0085EC86C0DB
:100E3000809375048EC0E091740481E08E0F8093DE
:100E400074048091BB00F0E0ED5AFB4F80839091D9
:100E50007404809173046EC0E091740481E08E0F7D
:100E6000809374048091BB00F0E0ED5AFB4F8083C7
:100E70008091760481116DC081E08093510484EAF1
:100E800061C083E08093770410922504CFCF8091D6
:100E90002504803208F051C0E091250481E08E0FD6
:100EA000809325048091BB00F0E0EB5FFB4F8083D3
:100EB000BDCF85EC8093BC0010927704809125040F
:100EC000803230F4E0912504F0E0EB5FFB4F1082BC
:100ED0006091250470E0E0910304F091040485E042
:100EE00094E019951092250435C084E0809377042E
:100EF0001092020410920104E091FF03F0910004AB
:100F0000199580910104811105C081E0809301044D
:100F10001092DF03E091020481E08E0F80930204BF
:100F2000F0E0E152FC4F80818093BB00909102047D
:100F300080910104981708F479CF85E88093BC006C
:100F400009C085EC8093BC001092770403C0109216
:100F50007504D2DAFF91EF91BF91AF919F918F917C
:100F60007F916F915F914F913F912F910F900BBEA9
:100F70000F900FBE0F901F9018954F925F926F9237
:100F80007F928F929F92AF92BF92EF92FF920F93B8
:100F90001F93CF93DF93EC014A015B0128013901D4
:100FA0004E8F5F8F68A379A30AA31BA32CA33DA335
:100FB000EE84FF84F7016081718182819381A901B0
:100FC00098010E940E19F70118162CF440825182E4
:100FD000628273820FC06081718182819381A501D9
:100FE00094010E943B1787FF05C0F7018082918220
:100FF000A282B3824E885F88688C798C8AA09BA07D
:10100000ACA0BDA0A5019401C301B2010E940E19BC
:10101000181664F08E8C9F8CA8A0B9A0A50194012D
:10102000C301B2010E943B1787FF04C08E8A9F8ACA
:10103000A88EB98EDF91CF911F910F91FF90EF9005
:10104000BF90AF909F908F907F906F905F904F90E8
:1010500008954F925F926F927F928F929F92AF927C
:10106000BF92CF92DF92EF92FF920F931F93CF9395
:10107000DF93CDB7DEB728970FB6F894DEBF0FBE6B
:10108000CDBF8C019BDCD8011C96ED91FC911D9786
:1010900040805180628073805096ED91FC91519711
:1010A0006081718182819381A30192010E947818ED
:1010B0006B017C01F80120813181428153810E94C2
:1010C000A0174B015C01D8015A962D913D914D918D
:1010D0005C915D97C301B2010E947818F8012085E8
:1010E0003185428553850E94A0179B01AC01C50143
:1010F000B4010E9478186D837E838F839887D8010E
:1011000014962D913D914D915C911797C701B601B1
:101110000E94A017F80126893789408D518D0E94C1
:1011200079184B015C01D80156966D937D938D9390
:101130009C9359979296CD90DD90ED90FC90959769
:10114000A70196010E940E19181634F4F801C68AF8
:10115000D78AE08EF18E1CC0D8015E968D919D914C
:101160000D90BC91A02D89839A83AB83BC839C0195
:10117000AD01C501B4010E943B1787FF09C08981F9
:101180009A81AB81BC81F801868B978BA08FB18F40
:10119000D80156962D913D914D915C9159976D8155
:1011A0007E818F8198850E9479184B015C01A7018F
:1011B00096010E940E1918167CF0F801C68CD78C87
:1011C000E0A0F1A0A7019601B401C5010E943B1760
:1011D00087FD02C064017501D8011E96ED91FC9156
:1011E0001F97C082D182E282F382F801428E538E31
:1011F000648E758E81E028960FB6F894DEBF0FBE20
:10120000CDBFDF91CF911F910F91FF90EF90DF90B5
:10121000CF90BF90AF909F908F907F906F905F9096
:101220004F9008958F929F92AF92BF92CF92DF928C
:10123000EF92FF92CF93DF93EC01C0DB6A8B7B8B45
:101240008C8B9D8BEC85FD8580819181A281B38102
:101250008A8F9B8FAC8FBD8FEE85FF85C080D1803C
:10126000E280F380CE8ADF8AE88EF98E8AA09BA086
:10127000ACA0BDA0A5019401C701B6010E940E1942
:10128000181664F08E8C9F8CA8A0B9A0A5019401BB
:10129000C701B6010E943B1787FF04C08E8A9F8A50
:1012A000A88EB98EDF91CF91FF90EF90DF90CF9015
:1012B000BF90AF909F908F900895CF92DF92EF9262
:1012C000FF920F931F93CF93DF93EB017B0124E0F9
:1012D000E20EF11C8B016C01C61AD70AC601800F01
:1012E000911F0E945718F80181938F01EE15FF0599
:1012F000A9F7CE01DF91CF911F910F91FF90EF9051
:10130000DF90CF9008951F920F920FB60F92112485
:101310000F900FBE0F901F9018951F920F920FB64F
:101320000F9211240F900FBE0F901F9018951F92CF
:101330000F920FB60F9211240F900FBE0F901F90B7
:1013400018951F920F920FB60F9211240F900FBE97
:101350000F901F9018951F920F920FB60F921124A5
:101360008F9381E08093B2031D9A8F910F900FBEEF
:101370000F901F9018951F920F920FB60F92112485
:101380000F900FBE0F901F9018951F920F920FB6DF
:101390000F9211240F900FBE0F901F9018951F925F
:1013A0000F920FB60F9211240F900FBE0F901F9047
:1013B00018951F920F920FB60F9211240F900FBE27
:1013C0000F901F9018951F920F920FB60F92112435
:1013D0000F900FBE0F901F9018951F920F920FB68F
:1013E0000F9211240F900FBE0F901F9018951F920F
:1013F0000F920FB60F9211241F9A0F900FBE0F90ED
:101400001F9018951398189512981895109818957C
:10141000109A129A139A18958FEF8093B40011982E
:1014200018951F920F920FB60F9211248F938091EF
:10143000DE03893021F08F5F8093DE0309C01092B4
:10144000DE03809110028093B400119A1092B200D2
:101450008F910F900FBE0F901F9018951F920F92B3
:101460000FB60F9211240F900FBE0F901F9018957A
:10147000CF92DF92EF92FF920F931F93CF93DF9360
:101480006C017A018B01C0E0D0E0CE15DF0589F058
:10149000D8016D918D01D601ED91FC910190F08103
:1014A000E02DC6011995892B11F47E0102C0219609
:1014B000ECCFC701DF91CF911F910F91FF90EF907B
:1014C000DF90CF900895EF92FF920F931F93CF93E9
:1014D000DF931F921F92CDB7DEB7182F81E0809364
:1014E0009A0410933E0710929904109298048EE18A
:1014F00096E049835A838DD88091980449815A8116
:10150000813208F046C0909177049111FCCF92E0AF
:1015100090937704109276049FEF90937504109245
:10152000740480937304A8E7B4E023E534E0F90180
:101530009E2F921B981718F49D919193F9CF1092BA
:10154000520480915204912F990F892B8093520459
:1015500080915104813061F41092510480915204C1
:101560008093BB008091BC0083FDF8CF85EC01C067
:1015700085EE8093BC00809177048230E1F3809106
:1015800075048F3F31F080917504803211F08091A5
:101590007504109299041092980410929A04809104
:1015A00077048111FCCF81E08093770480937604E7
:1015B0009FEF909375041092740495E090937304D8
:1015C0008093520480915204110F812B8093520416
:1015D00080915104813061F4109251048091520441
:1015E0008093BB008091BC0083FDF8CF85EC01C0E7
:1015F00085EE8093BC00809177048130E1F3809187
:101600007404863018F48091740401C086E0A3E568
:10161000B4E021E334E0F9019E2F921B981718F4EF
:101620009D919193F9CF1092300480932F048630CE
:10163000F0F37A018A010A5F1F4F8EE196E00E9463
:10164000BE02F70181937F01E017F107B1F70F9018
:101650000F90DF91CF911F910F91FF90EF90089520
:10166000E0919B04F0919C040190F081E02D682FA3
:101670008BE994E0199490E0FC01ED5FFD4F4491FB
:10168000FC01E354FE4F2491FC01E958FE4F949174
:10169000992309F466C0442309F455C050E0FA01C7
:1016A0003197E231F10508F04EC08827EE58FF4F20
:1016B0008F4F0C945F19809180008F7707C08091C5
:1016C00080008F7D03C080918000877F80938000A1
:1016D0003AC084B58F7702C084B58F7D84BD33C096
:1016E0008091B0008F7703C08091B0008F7D809390
:1016F000B00029C0809190008F7707C08091900042
:101700008F7D03C080919000877F809390001BC0E5
:101710008091A0008F7707C08091A0008F7D03C0CB
:101720008091A000877F8093A0000DC08091200150
:101730008F7707C0809120018F7D03C080912001A9
:10174000877F80932001E92FF0E0EE0FFF1FE35A1F
:10175000FE4FA591B4918FB7F894EC912E2B2C935A
:101760008FBF089590E0FC01E354FE4F2491FC01EB
:10177000E958FE4F8491882399F090E0880F991FD3
:10178000FC01ED5BFE4FA591B491FC01E35AFE4FC5
:10179000859194918FB7F894EC91E22BEC938FBFE5
:1017A00008956115710579F0FB0101900020E9F7BA
:1017B0003197AF01461B570BDC01ED91FC91028084
:1017C000F381E02D199480E090E008954F925F92AC
:1017D0006F927F92EF92FF920F931F93CF93DF93BD
:1017E000CDB7DEB7A1970FB6F894DEBF0FBECDBF61
:1017F0007C01FA01CB0119A2223008F42AE08E0103
:101800000F5D1F4F422E512C612C712CBF01A30183
:1018100092010E943D19F901CA01015011096A3073
:1018200014F4605D01C0695CD8016C93232B242BF8
:10183000252B61F7B801C701B4DFA1960FB6F89464
:10184000DEBF0FBECDBFDF91CF911F910F91FF90F3
:10185000EF907F906F905F904F90089562EA73E0F1
:10186000A0CF4F925F926F927F928F929F92AF9292
:10187000BF92CF92DF92EF92FF926B017C019B01AE
:10188000AC010E941219882319F065EA73E01AC0AE
:1018900046015701E894B7F82FEF3FEF4FE75FE7B6
:1018A000C501B4010E941219811111C02FEF3FEF41
:1018B0004FE75FE7C501B4010E943B1718163CF4DF
:1018C00069EA73E08BE994E06CDF7C0181C02FEF63
:1018D0003FEF4FE75FE4C701B6010E940E191816EB
:1018E0001CF46DEA73E0EECF2FEF3FEF4FE75FECB4
:1018F000C701B6010E943B1787FDF3CF20E030E01F
:10190000A901C701B6010E943B1787FF08C08DE2FD
:10191000A7DE5C01F7FAF094F7F8F09402C0A12C6E
:10192000B12C2AE037ED43EA5BE3C701B6010E9420
:1019300079182B013C010E94E2186B017C010E9486
:101940003F179B01AC01C301B2010E9478182B0123
:101950003C012AE0B701A6018BE994E037DF7C0166
:10196000EA0CFB1C8EE27CDEE80EF91E20E030E083
:1019700040E251E4C301B2010E94A0172B013C01D7
:101980000E94E2184B01A12CB12C2AE0B501A40160
:101990008BE994E01BDFE80EF91EC501B4010E943B
:1019A0003F179B01AC01C301B2010E94781820E0EF
:1019B00030E040E251E40E94A0170E94E218AB011F
:1019C00060E070E02AE08BE994E000DFE80EF91EA9
:1019D0008BE994E043DF8E0D9F1DFF90EF90DF9029
:1019E000CF90BF90AF909F908F907F906F905F90BF
:1019F0004F900895D6CECF93DF93CDB7DEB7CA56BA
:101A0000D1090FB6F894DEBF0FBECDBF789484B570
:101A1000826084BD84B5816084BD85B5826085BDEA
:101A200085B5816085BD80916E00816080936E0078
:101A3000109281008091810082608093810080916A
:101A4000810081608093810080918000816080931B
:101A500080008091B10084608093B1008091B000DB
:101A600081608093B00080919100826080939100AA
:101A700080919100816080939100809190008160BD
:101A8000809390008091A10082608093A10080915A
:101A9000A10081608093A1008091A000816080936B
:101AA000A000809121018260809321018091210119
:101AB00081608093210180912001816080932001C9
:101AC00080917A00846080937A0080917A008260AD
:101AD00080937A0080917A00816080937A0080916F
:101AE0007A00806880937A001092C100099A089A5F
:101AF0000A9A0B9AF89410928000109281008091BB
:101B00008000826080938000809181008861809352
:101B10008100809181008260809381008FE39CE945
:101B200090938700809386008FEC97E090938900D4
:101B30008093880090938B0080938A0090938D000F
:101B400080938C0080916F00816080936F00809102
:101B50006F00826080936F0080916F00846080933B
:101B60006F0080916F00886080936F007894F89484
:101B70001092B0001092B1001092B20089EF8093E1
:101B8000B30085E98093B4008091B00082608093B7
:101B9000B0008091B10085608093B10080917000A9
:101BA00082608093700080917000846080937000E8
:101BB00078940E94E1034B015C01A8EBCA2EABE0D4
:101BC000DA2EE12CF12C0E94E103DC01CB01881913
:101BD0009909AA09BB09883E9340A105B10558F0AF
:101BE00021E0C21AD108E108F10838EE830E33E093
:101BF000931EA11CB11CC114D104E104F10419F716
:101C00008BE0B0DD8CE0AEDD8DE0ACDDE091480531
:101C1000F091490522E02083E0914405F0914505CB
:101C20001082E0914605F091470587E0808310928D
:101C30005005E0914C05F0914D0596E09083E091C0
:101C40004A05F0914B05808180618083E0914A05CF
:101C5000F0914B05808188608083E0914A05F09186
:101C60004B05808180688083E0914A05F0914B05A7
:101C700080818F7D8083E091AB04F091AC04208360
:101C8000E091A704F091A8041082E091A904F091DA
:101C9000AA0480E180831092B304E091AF04F09134
:101CA000B0049083E091AD04F091AE048081806136
:101CB0008083E091AD04F091AE04808188608083E0
:101CC000E091AD04F091AE04808180688083E09162
:101CD000AD04F091AE0480818F7D808300E010E040
:101CE00020E231E440E050E060E271EC88E197E00E
:101CF00044D900E010E020E231E440E050E060E24E
:101D000071EC86EE96E039D900E010E020E231E493
:101D100040E050E060E271EC88EB96E02ED900E004
:101D200010E028E433E440E050E068E473EC8AE833
:101D300096E023D900E010E028E433E440E050E0EE
:101D400068E473EC8CE596E018D900E010E028E434
:101D500033E440E050E068E473EC8EE296E00DD9A5
:101D600088E197E05FDA86EE96E05CDA88EB96E051
:101D700059DA8AE896E056DA8CE596E053DA8EE294
:101D800096E050DA80E090E00E9457188234F1F437
:101D90006BE372E081E090E090DA6FE372E085E05F
:101DA00090E08BDA63E472E089E090E086DA6BE23F
:101DB00072E08DE090E081DA6FE272E081E190E024
:101DC0007CDA63E372E085E190E077DA80E5809386
:101DD0001D061092300410922F0410929904109254
:101DE00098041092770481E0809376041092510455
:101DF00084E141DC85E13FDC8091B9008E7F8093F6
:101E0000B9008091B9008D7F8093B90088E48093F8
:101E1000B80085E48093BC0088EA94E090930102C6
:101E20008093000280916A008C7F816080936A00B9
:101E3000EC9A82E794E090930302809302028091EF
:101E40006A00837F846080936A00ED9A8CE394E05B
:101E500090930B0280930A02809169008F738064D3
:101E600080936900EB9A86E094E090930902809356
:101E70000802809169008F7C806180936900EA9AF2
:101E8000F8941092A0001092A1008091A0008260AE
:101E90008093A0008091A10088618093A10080912F
:101EA000A10082608093A10080E29EE49093A7004D
:101EB0008093A6001092A9001092A8001092AB0087
:101EC0001092AA001092AD001092AC0080917200A6
:101ED0008160809372007894F89410929000109230
:101EE0009100809190008260809390008091910099
:101EF000886180939100809191008260809391002D
:101F00008FE39CE990939700809396008FE99FE080
:101F1000909399008093980090939B0080939A00EF
:101F200090939D0080939C008091710081608093CC
:101F30007100789462EE662E64E0762E7FECE72ED8
:101F400077E0F72EECED8E2EE5E09E2EF4E1CF2E1D
:101F5000D12C9E012B5F3F4FAB963FAF2EAFAB977F
:101F60008E010F5F1F4F1E9A8091B203882309F4E0
:101F70009DC21092B2038091170290911802883E80
:101F80009340C4F08091170290911802813D9740D0
:101F9000B4F480911702909118021401281A390A9A
:101FA000C101B6010E942A19072E000C880B990B5B
:101FB00068D709C060E070E088EC91E404C060E09C
:101FC00070E088EC91EC60930C0770930D078093A0
:101FD0000E0790930F078091150290911602883E8C
:101FE0009340B4F08091150290911602813D974084
:101FF000A4F480911502909116028C5D9540B60173
:102000000E942A19072E000C880B990B3AD709C099
:1020100060E070E088EC91EC04C060E070E088EC77
:1020200091E46093DE067093DF068093E006909360
:10203000E1068091130290911402883E9340C4F00F
:102040008091130290911402813D9740B4F48091E5
:102050001302909114021401281A390AC101B60121
:102060000E942A19072E000C880B990B0AD709C069
:1020700060E070E088EC91E404C060E070E088EC1F
:1020800091EC6093B0067093B1068093B206909382
:10209000B30645EE55E067E380911D0614DA4DEE78
:1020A00055E06DE380911D060EDA6091E5057091B3
:1020B000E605072E000C880B990BE3D620E030E0F4
:1020C00040E058E33DD720E030E04AEF54E438D711
:1020D000609386067093870680938806909389069E
:1020E0006091E7057091E805072E000C880B990BAD
:1020F000C8D620E030E040E058E322D720E030E0CE
:102100004AEF54E41DD760935806709359068093A4
:102110005A0690935B066091E9057091EA05072ED7
:10212000000C880B990BADD620E030E040E058E37E
:1021300007D720E030E04AEF54E402D7609327024B
:10214000709328028093290290932A026091ED05F2
:102150007091EE05072E000C880B990B92D620E0AB
:1021600030E040E058E3ECD620E030E044E353E4D4
:10217000E7D626E636E646EE5FE3BAD76093140765
:102180007093150780931607909317076091EF05DA
:102190007091F005072E000C880B990B72D620E089
:1021A00030E040E058E3CCD620E030E044E353E4B4
:1021B000C7D620E030E040E85FE39BD76093E206BB
:1021C0007093E3068093E4069093E5066091F10531
:1021D0007091F205072E000C880B990B52D620E067
:1021E00030E040E058E3ACD620E030E044E353E494
:1021F000A7D66093B4067093B5068093B606909305
:10220000B70688E197E00E94290886EE96E00E94D2
:10221000290888EB96E00E9429088AE896E00E9447
:1022200029088CE596E00E9429088EE296E00E943B
:102230002908609154067091550680915606909138
:102240005706BBD77093C2036093C10360918206A7
:10225000709183068091840690918506AED7709325
:10226000C0036093BF0360912A0670912B06809192
:102270002C0690912D06A1D77093BE036093BD03E9
:1022800040911102509112022091110230911202DC
:10229000485E5340285E3340429FC001439F900DEB
:1022A000529F900D1124B301D5D768517C4F709384
:1022B000BC036093BB038091BB039091BC0360910E
:1022C000BF037091C0032091C1033091C2034091BC
:1022D000BD035091BE03861B970B820F931F841B77
:1022E000950B9093B4038093B3038091BB039091BB
:1022F000BC036091BF037091C0034091C103509132
:10230000C2032091BD033091BE03861B970B841B33
:10231000950B820F931F9093B6038093B503609142
:10232000BB037091BC038091BF039091C0034091A7
:10233000C1035091C2032091BD033091BE03860FAB
:10234000971F841B950B821B930B9093B80380936C
:10235000B7036091BB037091BC038091BF03909160
:10236000C0034091C1035091C2032091BD0330913D
:10237000BE03860F971F840F951F820F931F9093A4
:10238000BA038093B9038091BB039091BC0386305C
:1023900094407CF43CE730931002F0928900E09284
:1023A0008800F0928B00E0928A00F0928D00E0921B
:1023B0008C008091B3039091B403883E9340A4F0C5
:1023C0008091B3039091B403813D97407CF4809158
:1023D000B3039091B40397FD079653E095958795C5
:1023E0005A95E1F7815003C08CE701C089EF8093D3
:1023F00010028091B5039091B603883E93407CF023
:102400008091B5039091B603813D97405CF4809133
:10241000B5039091B603880F991F019705C08FEC03
:1024200097E002C08FE99FE0909389008093880035
:102430008091B7039091B803883E93407CF08091DF
:10244000B7039091B803813D97405CF48091B70346
:102450009091B803880F991F019705C08FEC97E002
:1024600002C08FE99FE090938B0080938A00809157
:10247000B9039091BA03883E93407CF08091B903F0
:102480009091BA03813D97405CF48091B90390919B
:10249000BA03880F991F019705C08FEC97E002C01F
:1024A0008FE99FE090938D0080938C008091C7030B
:1024B0009091C8038136EAEE9E0730F4019690931E
:1024C000C8038093C70396C11092C8031092C70334
:1024D0008BE994E00E94A201892B09F482C0198241
:1024E0001A821B821C82AB96EEADFFADAB9780E6E5
:1024F000282E11922A94E9F758011501201A310A61
:102500008BE994E00E94A201892B41F08BE994E0D1
:102510000E948001F50181935F01EFCF232809F428
:1025200060C063E772E0C801D6D6009751F0039609
:1025300019D360933B0270933C0280933D029093C9
:102540003E0267E772E0C801C6D6009751F00396D5
:1025500009D360933F0270934002809341029093AD
:1025600042026BE772E0C801B6D6009751F00396BD
:10257000F9D2609343027093440280934502909392
:1025800046026FE772E0C801A6D6009751F00396A5
:10259000E9D260932B0270932C0280932D029093CA
:1025A0002E0263E872E0C80196D6009751F00396B8
:1025B000D9D260932F0270933002809331029093AE
:1025C000320267E872E0C80186D6009751F00396A0
:1025D000C9D2609333027093340280933502909392
:1025E00036026BE872E08BE994E0DBD88BE994E08B
:1025F00035D964EB72E08BE994E0FCD960913B0241
:1026000070913C0280913D0290913E022AD968EC83
:1026100072E08BE994E0EED960913F027091400244
:1026200080914102909142021CD96AED72E08BE9DF
:1026300094E0E0D960914302709144028091450298
:10264000909146020ED96EEE72E08BE994E0D2D9F9
:1026500060912B0270912C0280912D0290912E029C
:1026600000D961E073E08BE994E0C4D960912F0256
:10267000709130028091310290913202F2D862E181
:1026800073E08BE994E0B6D9609133027091340223
:102690008091350290913602E4D88BE994E0DED83F
:1026A00065E273E08BE994E0A5D94091170250915F
:1026B0001802052E000C660B770B77FF22C08DE207
:1026C000A6964FAFA697A7965FAFA797A8966FAFAE
:1026D000A897A9967FAFA9970E94300BA6964FADF9
:1026E000A697A7965FADA797A8966FADA897A9964E
:1026F0007FADA99770956095509541955F4F6F4F4D
:102700007F4F2AE08BE994E061D88BE994E0A6D86A
:1027100066E373E08BE994E06DD960910C077091EA
:102720000D0780910E0790910F079BD86EE373E021
:102730008BE994E05FD9609114077091150780913F
:102740001607909117078DD86CE473E08BE994E03D
:1027500051D96091100770911107809112079091E3
:1027600013077FD861E673E08BE994E043D9609169
:10277000860670918706809188069091890671D8A7
:102780006EE673E08BE994E035D960918206709132
:102790008306809184069091850663D88BE994E046
:1027A0005DD867E873E088E395E024D90E94DE04F1
:1027B0002091C3033091C4034091C5035091C603D7
:1027C0001B012C01221A330A440A550AB201A10145
:1027D0002AE088E395E00E94E60B88E395E03ED886
:1027E0000E94DE046093C3037093C4038093C50307
:1027F0009093C60368E973E088E395E0FBD80E94F4
:10280000DE04AB01BC012AE088E395E00E94E60B00
:1028100088E395E023D8A7CB8F929F92AF92BF9287
:10282000CF92DF92EF92FF920F931F93CF93DF939C
:10283000EBE9F4E01382128288EE93E0A0E0B0E0CE
:1028400084839583A683B78323E532E03183208395
:1028500045ED50E05587448744ED50E05787468763
:1028600040ED50E0518B408B41ED50E0538B428B5B
:1028700042ED50E0558B448B46ED50E0578B468B34
:10288000118E128E138E148EE8E3F5E013821282FD
:1028900084839583A683B7833183208325EC30E03E
:1028A0003587248724EC30E03787268720EC30E01A
:1028B000318B208B21EC30E0338B228B22EC30E00B
:1028C000358B248B26EC30E0378B268B118E128EC5
:1028D000138E148E20E520931D06EEE1F6E01382A0
:1028E000128284839583A683B78385E692E09183E1
:1028F0008083E5E7F7E0168A178A108E118E2BE4A5
:1029000032E03787268781E797E0958784878DE6D1
:1029100097E0918B808B80E090E0A0E8BFE380831C
:102920009183A283B38384839583A683B7838087AF
:102930009187A287B387E7E4F7E0168A178A108E9B
:10294000118E43E457E05787468747E452E05587A6
:102950004487318B208B80839183A283B3838483CC
:102960009583A683B78380879187A287B387809159
:10297000430290914402A0914502B09146024091D9
:102980003F02509140026091410270914202C0901A
:102990003B02D0903C02E0903D02F0903E02E8E124
:1029A000F7E0168A178A108E118EC0E1D7E0D7871C
:1029B000C68724E137E0358724872CE037E0318B68
:1029C000208BC082D182E282F38244835583668366
:1029D000778380879187A287B387E6EEF6E0168A31
:1029E000178A108E118E0FE317E01787068722EEE5
:1029F00036E0358724872EED36E0318B208BC08280
:102A0000D182E282F3824483558366837783808711
:102A10009187A287B387E8EBF6E0168A178A108EB3
:102A2000118E27E332E0378726870F2EF4EBAF2E87
:102A3000F6E0BF2EF02DB586A4860F2EF0EBAF2E5C
:102A4000F6E0BF2EF02DB18AA08AC082D182E28248
:102A5000F382448355836683778380879187A28737
:102A6000B3878091330290913402A0913502B091E6
:102A7000360240912F0250913002609131027091E4
:102A8000320280902B0290902C02A0902D02B090E8
:102A90002E02EAE8F6E0168A178A108E118E0F2EA3
:102AA000F2E8EF2EF6E0FF2EF02DF786E6860F2EE9
:102AB000F6E8EF2EF6E0FF2EF02DF586E486D18BBA
:102AC000C08B80829182A282B382448355836683C5
:102AD000778380879187A287B387ECE5F6E0168A33
:102AE000178A108E118EC4E5D6E0D787C687C8E551
:102AF000D6E0D587C487118B008B80829182A28219
:102B0000B382448355836683778380879187A287C6
:102B1000B387EEE2F6E0168A178A108E118ECAE2AB
:102B2000D6E0D787C687C7E2D2E0D587C487318B86
:102B3000208B80829182A282B382448355836683F4
:102B4000778380879187A287B387DF91CF911F9189
:102B50000F91FF90EF90DF90CF90BF90AF909F903C
:102B60008F9008956627772700C06F927F928F928B
:102B70009F92AF92BF92CF92DF92EF92FF920F930C
:102B80001F93CF93DF93EC017B016115710519F061
:102B9000DB018D939C938E010F5F1F4F7880872DF3
:102BA00090E049D1892B11F0E801F5CFBDE27B120D
:102BB00005C00F5F1F4F7980C1E008C0EBE27E12B5
:102BC00004C08E010E5F1F4F7980C0E06801F1E004
:102BD000CF1AD10843E050E060E171E0C60133D183
:102BE000892BE9F4680122E0C20ED11C45E050E0D7
:102BF0006BE071E0C60127D1892B21F4680187E0E1
:102C0000C80ED11CE114F10419F0D701CD92DC9269
:102C1000C111F9C060E070E080E89FE7FDC043E0CB
:102C200050E068E071E0C6010ED1892B51F4E11447
:102C3000F10409F4EDC00E5F1F4FF701118300830B
:102C4000E7C0680160E070E0CB0100E010E0F60151
:102C5000D0EDD70DDA3050F52C2F2260622E2C2FBC
:102C60002870C2FF05C0211127C00F5F1F4F24C06D
:102C7000222311F001501109A5E0B0E09B01AC0145
:102C80001ED24B015C01880C991CAA1CBB1CC501FF
:102C9000B4016D0F711D811D911D6839A9E97A0775
:102CA0008A07A9E19A0740F0C66005C0DE3F51F4EB
:102CB000C3FD44C0C8606C2EBFEFCB1ADB0A708026
:102CC000C62DC5CF2D2F2F7D2531C1F540814D3229
:102CD00011F4C06106C04B3221F0319621E030E0A2
:102CE00006C03296D60111964C9122E030E0A0ED5C
:102CF000A40FAA3018F0E21BF30B20C040E050E014
:102D00004038BCE05B075CF49A01220F331F220FAE
:102D1000331F420F531F440F551F4A0F511D319649
:102D2000DF0111972C91A0EDA20FAA3048F3C4FF48
:102D300003C0519541955109040F151FC1FF07C0EC
:102D4000E114F10421F03197D701ED93FC9397D072
:102D5000C370C33019F06B017C0106C06B017C01AC
:102D6000F7FAF094F7F8F09420E030E0A901C701F9
:102D7000B60181D0882309F443C017FF06C011951E
:102D800001951109C7E2D1E002C0CFE3D1E05E01B5
:102D9000B8E1AB1AB1084601BE2DAF2D90E2E92E85
:102DA000F12C0E151F057CF0FE0125913591459102
:102DB0005491B4018B2F9A2FC3D04B01B82FA92F58
:102DC0000E191F09EECF2497F594E794CA15DB0579
:102DD00041F76401EB2EFA2E8E2D880F8F2D881F60
:102DE0008F3F41F020E030E0A901C701B60143D098
:102DF000811106C082E290E090939C0780939B072C
:102E0000C701B60109C060E070E080E89FEF04C030
:102E100060E070E080EC9FE7DF91CF911F910F9110
:102E2000FF90EF90DF90CF90BF90AF909F908F90EA
:102E30007F906F9008959111E6C0803219F089500B
:102E40008550D0F70895FB01DC014150504088F0D7
:102E50008D9181341CF08B350CF4805E659161346A
:102E60001CF06B350CF4605E861B611171F3990BDD
:102E70000895881BFCCF40D008F481E00895E894C1
:102E800009C097FB3EF490958095709561957F4FB2
:102E90008F4F9F4F9923A9F0F92F96E9BB27939560
:102EA000F695879577956795B795F111F8CFFAF470
:102EB000BB0F11F460FF1BC06F5F7F4F8F4F9F4FA1
:102EC00016C0882311F096E911C0772321F09EE8FF
:102ED000872F762F05C0662371F096E8862F70E065
:102EE00060E02AF09A95660F771F881FDAF7880F3F
:102EF0009695879597F90895990F0008550FAA0B95
:102F0000E0E8FEEF16161706E807F907C0F01216FC
:102F10001306E407F50798F0621B730B840B950BFF
:102F200039F40A2661F0232B242B252B21F4089554
:102F30000A2609F4A140A6958FEF811D811D0895F1
:102F40000BD07BC06CD028F071D018F0952309F01D
:102F50005DC062C01124A5C081D0A0F3959FD1F3BC
:102F6000950F50E0551F629FF001729FBB27F00D37
:102F7000B11D639FAA27F00DB11DAA1F649F66278C
:102F8000B00DA11D661F829F2227B00DA11D621FDB
:102F9000739FB00DA11D621F839FA00D611D221F95
:102FA000749F3327A00D611D231F849F600D211D79
:102FB000822F762F6A2F11249F5750408AF0E1F01C
:102FC00088234AF0EE0FFF1FBB1F661F771F881F65
:102FD00091505040A9F79E3F510570F017C061C055
:102FE0005F3FECF3983EDCF3869577956795B79550
:102FF000F795E7959F5FC1F7FE2B880F911D96957A
:10300000879597F9089599278827089597F99F67D5
:1030100080E870E060E008959FEF80EC0895002460
:103020000A941616170618060906089500240A942D
:1030300012161306140605060895092E0394000CB3
:1030400011F4882352F0BB0F40F4BF2B11F460FF42
:1030500004C06F5F7F4F8F4F9F4F089557FD90586B
:10306000440F551F59F05F3F71F04795880F97FB4C
:10307000991F61F09F3F79F0879508951216130606
:103080001406551FF2CF4695F1DF08C01616170635
:103090001806991FF1CF869571056105089408956A
:1030A000E894BB2766277727CB0197F90895F9990C
:1030B000FECF92BD81BDF89A992780B5089509D0B9
:1030C000A59F900DB49F900DA49F800D911D11247C
:1030D0000895A29FB001B39FC001A39F700D811DF1
:1030E0001124911DB29F700D811D1124911D089511
:1030F0005058BB27AA270ED0A0CF91DF30F096DF23
:1031000020F031F49F3F11F41EF486CF0EF4E095C9
:10311000E7FB7CCFE92FA2DF80F3BA1762077307C2
:103120008407950718F071F49EF5BACF0EF4E09578
:103130000B2EBA2FA02D0B01B90190010C01CA0171
:10314000A0011124FF27591B99F0593F50F4503E1C
:1031500068F11A16F040A22F232F342F4427585F0E
:10316000F3CF469537952795A795F0405395C9F726
:103170007EF41F16BA0B620B730B840BBAF09150DE
:10318000A1F0FF0FBB1F661F771F881FC2F70EC07D
:10319000BA0F621F731F841F48F487957795679550
:1031A000B795F7959E3F08F0B3CF9395880F08F039
:1031B0009927EE0F97958795089504D06894B111DB
:1031C00070CF089553DF88F09F5790F0B92F99275B
:1031D000B751A0F0D1F0660F771F881F991F1AF022
:1031E000BA95C9F712C0B13081F05ADFB1E0089545
:1031F00057CF672F782F8827B85F39F0B93FCCF3C6
:10320000869577956795B395D9F73EF49095809517
:10321000709561957F4F8F4F9F4F08956DDE08F435
:103220008FEF089569DE880B990B0895AA1BBB1BCD
:1032300051E107C0AA1FBB1FA617B70710F0A61BB6
:10324000B70B881F991F5A95A9F780959095BC01D7
:10325000CD01089597FB072E16F4009406D077FD54
:1032600008D0E4DF07FC05D03EF4909581959F4F90
:103270000895709561957F4F0895A1E21A2EAA1BBB
:10328000BB1BFD010DC0AA1FBB1FEE1FFF1FA21716
:10329000B307E407F50720F0A21BB30BE40BF50B13
:1032A000661F771F881F991F1A9469F7609570959C
:1032B000809590959B01AC01BD01CF010895EE0F63
:1032C000FF1F881F8BBF0790F691E02D199481E0B6
:1032D00090E0F8941AC0FB0151915523A9F0BF0169
:1032E000DC014D9145174111E1F759F4CD010190F1
:1032F000002049F04D9140154111C9F3FB014111E6
:0E330000EFCF81E090E001970895F894FFCFA1
:10330E007B027B027B027B027B027B027B027B02C7
:10331E007CE803DC05DC05DC05E803E8030101DCE1
:10332E0005DC05E803DC050000803F0000204100BD
:10333E0000803F0000803F0000803F0000803FCDB6
:10334E00CCCC3DCDCCCC3D0000803F0000803F007A
:10335E00000000E101380A71012702A201800194E8
:10336E0001000000000903DA023803AE02D202BEE9
:10337E0002AF0241503A0041493A0041443A0047F7
:10338E00503A0047493A0047443A002A2A2A2A2A44
:10339E002A2A2A2A2A2A2A2A5374617475732052D9
:1033AE0065706F72742A2A2A2A2A2A2A2A2A2A2A17
:1033BE002A2A2A00416E676C652050726F706F72F8
:1033CE0074696F6E203A2000416E676C6520496EFD
:1033DE0074656772616C203A2000416E676C6520DF
:1033EE0044657269766174696F6E203A2000477980
:1033FE00726F2050726F706F7274696F6E203A2008
:10340E00004779726F20496E74656772616C203A5D
:10341E0020004779726F2044657269766174696F16
:10342E006E203A20006368616E6E656C5F70697421
:10343E006368203A2000457870656374656450694E
:10344E00746368616E676C65203A2000506974631E
:10345E006865787065637465644779726F203A2089
:10346E000050697463684779726F203A2000706962
:10347E007463685468726F74746C65546F436861DA
:10348E006E6765203A20006D696C6C697320636805
:10349E00616E6765203A20006D696C6C6973203A25
:1034AE0020000D0A006E616E00696E66006F766612
:0234BE0000000C
:020000023000CC
:10E000000D9489F10D94B2F10D94B2F10D94B2F129
:10E010000D94B2F10D94B2F10D94B2F10D94B2F1F0
:10E020000D94B2F10D94B2F10D94B2F10D94B2F1E0
:10E030000D94B2F10D94B2F10D94B2F10D94B2F1D0
:10E040000D94B2F10D94B2F10D94B2F10D94B2F1C0
:10E050000D94B2F10D94B2F10D94B2F10D94B2F1B0
:10E060000D94B2F10D94B2F10D94B2F10D94B2F1A0
:10E070000D94B2F10D94B2F10D94B2F10D94B2F190
:10E080000D94B2F10D94B2F10D94B2F10D94B2F180
:10E090000D94B2F10D94B2F10D94B2F10D94B2F170
:10E0A0000D94B2F10D94B2F10D94B2F10D94B2F160
:10E0B0000D94B2F10D94B2F10D94B2F10D94B2F150
:10E0C0000D94B2F10D94B2F10D94B2F10D94B2F140
:10E0D0000D94B2F10D94B2F10D94B2F10D94B2F130
:10E0E0000D94B2F141546D656761323536300041AF
:10E0F000726475696E6F206578706C6F72657220DE
:10E1000073746B3530305632206279204D4C530099
:10E11000426F6F746C6F616465723E004875683F52
:10E1200000436F6D70696C6564206F6E203D200048
:10E130004350552054797065202020203D20005FF9
:10E140005F4156525F415243485F5F3D2000415658
:10E1500052204C696243205665723D20004743437C
:10E160002056657273696F6E203D20004350552024
:10E1700049442020202020203D20004C6F7720663D
:10E18000757365202020203D20004869676820665F
:10E190007573652020203D200045787420667573D6
:10E1A00065202020203D20004C6F636B2066757336
:10E1B000652020203D20004D617220203720323024
:10E1C000313300312E362E3800342E332E350056A2
:10E1D00023202020414444522020206F7020636F70
:10E1E00064652020202020696E73747275637469E1
:10E1F0006F6E2061646472202020496E74657272B3
:10E20000757074006E6F20766563746F7200726A49
:10E210006D702020006A6D70200057686174207056
:10E220006F72743A00506F7274206E6F7420737541
:10E2300070706F72746564004D7573742062652030
:10E2400061206C6574746572002000577269747483
:10E25000696E672045450052656164696E672045B7
:10E26000450045452065727220636E743D00504F35
:10E27000525400303D5A65726F2061646472003FF1
:10E280003D43505520737461747300403D454550C3
:10E29000524F4D207465737400423D426C696E6B41
:10E2A000204C454400453D44756D70204545505215
:10E2B0004F4D00463D44756D7020464C415348001B
:10E2C000483D48656C70004C3D4C69737420492F83
:10E2D0004F20506F72747300513D51756974005234
:10E2E0003D44756D702052414D00563D73686F7707
:10E2F00020696E7465727275707420566563746FF0
:10E30000727300593D506F727420626C696E6B00BD
:10E310002A0011241FBECFEFD1E2DEBFCDBF01E046
:10E320000CBF12E0A0E0B2E0EEE1FDEF03E00BBFB6
:10E3300002C007900D92A030B107D9F712E0A0E01B
:10E34000B2E001C01D92AE30B107E1F70F9460F367
:10E350000D948DFE01E20EBF0FEF0DBF11241FBE05
:10E360000D9460F30D9400F020E030E040ED57E0B4
:10E3700005C0FA013197F1F72F5F3F4F2817390792
:10E38000C0F308959C01260F311DC901A0E0B0E043
:10E390002F5F3F4FABBFFC018791882361F08093D3
:10E3A000C6008091C00086FFFCCF8091C0008064D1
:10E3B0008093C000EACF08958DE08093C6008091DD
:10E3C000C00086FFFCCF8091C00080648093C000B5
:10E3D0008AE08093C6008091C00086FFFCCF8091C8
:10E3E000C00080648093C00008950F94C2F10F9420
:10E3F000DCF10895FC019081992359F09093C600B7
:10E400008091C00086FFFCCF8091C0008064809323
:10E41000C0003196992379F70895282F982F929567
:10E420009F70892F805D8A3308F0895F8093C600D2
:10E430008091C00086FFFCCF8091C00080648093F3
:10E44000C000822F8F70982F905D9A3308F0995FEB
:10E450009093C6008091C00086FFFCCF8091C000E1
:10E4600080648093C00008959C01FB01853691056E
:10E470001CF46330710594F0C90164E670E00F94F8
:10E480002EFE605D7F4F6093C6008091C00086FFC6
:10E49000FCCF8091C00080648093C0002B30310598
:10E4A00014F43297B4F0C90164E670E00F942EFEC4
:10E4B0006AE070E00F942EFE605D7F4F6093C600AF
:10E4C0008091C00086FFFCCF8091C0008064809363
:10E4D000C000C9016AE070E00F942EFEC0968093E0
:10E4E000C6008091C00086FFFCCF8091C000806490
:10E4F0008093C00008951F93182F8EE692EE60E07F
:10E500000F94C2F11093C6008091C00086FFFCCF2B
:10E510008091C00080648093C0000F94DCF11F9153
:10E5200008952F923F924F925F926F927F928F92B7
:10E530009F92AF92BF92CF92DF92EF92FF920F9392
:10E540001F93DF93CF93CDB7DEB762970FB6F894E2
:10E55000DEBF0FBECDBF382E622ECA01DB015C01CB
:10E560006D01772420E2222E2E010894411C511CBB
:10E570008BC081E0A81680E0B80681E0C80680E084
:10E58000D80628F0C601AA27BB270F940DF2BB2797
:10E59000AD2D9C2D8B2D0F940DF28A2D0F940DF225
:10E5A0002092C6008091C00086FFFCCF8091C00001
:10E5B00080648093C0009DE29093C6008091C0006B
:10E5C00086FFFCCF8091C00080648093C0002092C1
:10E5D000C6008091C00086FFFCCF8091C00080649F
:10E5E0008093C00019828601750188249924A1E0D6
:10E5F0003A1651F03A1620F0B2E03B1661F409C029
:10E600000BBFF701779007C0C7010F9477FE782EF4
:10E6100002C0F7017080872D0F940DF22092C60082
:10E620008091C00086FFFCCF8091C0008064809301
:10E63000C000872D8052F401EF70F0708F3520F408
:10E64000E40DF51D708204C0E40DF51D8EE280839B
:10E650000894E11CF11C011D111D0894811C911CE2
:10E6600090E18916910409F0C2CF80E190E0A0E02A
:10E67000B0E0A80EB91ECA1EDB1E198AC2010F9493
:10E68000FAF10F94DCF16A94662009F072CF629679
:10E690000FB6F894DEBF0FBECDBFCF91DF911F91B3
:10E6A0000F91FF90EF90DF90CF90BF90AF909F9031
:10E6B0008F907F906F905F904F903F902F90089534
:10E6C0002F923F924F925F926F927F928F929F9282
:10E6D000AF92BF92CF92DF92EF92FF920F931F9370
:10E6E000DF93CF93CDB7DEB7CD53D1400FB6F894BB
:10E6F000DEBF0FBECDBF01E20EBF0FEF0DBF94B75F
:10E70000F894A89514BE80916000886180936000A1
:10E7100010926000789493FF05C0E0910002F091A0
:10E7200001021995279A2F9A8091C00082608093E8
:10E73000C00080E18093C40088E18093C1000000A4
:10E74000EE24FF24870144E0A42EB12CCC24DD2448
:10E7500024C0C5010197F1F70894E11CF11C011DCB
:10E76000111D21E2E2162EE4F20620E0020720E06D
:10E77000120718F031E0C32ED12CC801B70127ECE5
:10E780003BE140E050E00F9441FE611571058105C9
:10E79000910519F485B1805885B98091C00087FD35
:10E7A00003C0C114D104A9F2A6014F5F5F4FC25E3E
:10E7B000DE4F59834883CE51D140C25EDE4F8881FF
:10E7C0009981CE51D140019711F00D9410FEC05D9A
:10E7D000DE4F19821882C053D14060E0C15DDE4F28
:10E7E0001882CF52D14088249924C35DDE4F19820C
:10E7F0001882CD52D140C05EDE4F188219821A8233
:10E800001B82C052D140CE5CDE4F188219821A8220
:10E810001B82C253D140EE24FF2487010BBFF701B6
:10E8200007911691C45CDE4F19830883CC53D14005
:10E830000D940BFEC25EDE4F28813981CE51D1404E
:10E840002130310509F52091C600C25EDE4F1982E4
:10E850001882CE51D14022C02F5F3F4F4F4F5F4FA4
:10E86000213082E138078AE7480780E0580780F0C6
:10E87000C45CDE4FE881F981CC53D140EF5FFF4F9C
:10E8800019F0EE27FF27099420E030E040E050E047
:10E890008091C00087FFE0CF2091C600C35DDE4FAE
:10E8A00048815981CD52D1404F5F5F4FC35DDE4FEC
:10E8B00059834883CD52D140213209F063C64A3092
:10E8C000510508F05FC60894811C911C53E0851621
:10E8D000910409F059C600E010E018C081E280936D
:10E8E000C6008091C00086FFFCCF8091C00080648C
:10E8F0008093C0002F5F3F4F2931310579F70F9486
:10E90000DCF10F5F1F4F0530110519F020E030E0FA
:10E91000E5CF10920A0210920B0210920C02109294
:10E920000D02109206021092070210920802109235
:10E930000902109202021092030210920402109235
:10E9400005028FEE90EE60E00F94F5F180E191EE1C
:10E9500060E00F94C2F18091C00087FFFCCF9091DE
:10E96000C600903608F09F759032B8F09093C600BC
:10E970008091C00086FFFCCF8091C00080648093AE
:10E98000C000A0E2A093C6008091C00086FFFCCF2B
:10E990008091C00080648093C000983409F4D7C18E
:10E9A0009934B8F4923409F459C1933458F490333B
:10E9B00019F1903308F4E3C59F33A1F1903409F0C5
:10E9C000DEC5BDC0953409F470C1963409F0D7C5D1
:10E9D00098C1923509F42BC2933538F49C3409F46C
:10E9E000F5C1913509F0CBC518C2963509F445C279
:10E9F000993509F0C4C567C483E792EE62E00F94CD
:10EA0000F5F110920602109207021092080210927D
:10EA1000090210920A0210920B0210920C0210923C
:10EA20000D0213C18FE792EE62E00F94F5F18FEEC5
:10EA300090EE60E00F94F5F181E291EE60E00F94CA
:10EA4000C2F187EB91EE60E00F94F5F180E391EE77
:10EA500060E00F94C2F184EE90EE60E00F94F5F167
:10EA60008FE391EE60E00F94C2F186E090E061E008
:10EA700070E00F9434F20F94DCF18DE591EE60E0DC
:10EA80000F94C2F189EC91EE60E00F94F5F18EE401
:10EA900091EE60E00F94C2F183EC91EE60E00F9490
:10EAA000F5F18CE691EE60E00F94C2F18EE10F94E7
:10EAB0000DF288E90F940DF281E00F940DF20F949E
:10EAC000DCF18BE791EE60E00F94C2F119E0E0E039
:10EAD000F0E010935700E4918E2F0F940DF20F94F5
:10EAE000DCF18AE891EE60E00F94C2F1E3E0F0E03F
:10EAF00010935700E4918E2F0F940DF20F94DCF1D8
:10EB000089E991EE60E00F94C2F1E2E0F0E0109349
:10EB10005700E4918E2F0F940DF20F94DCF188EAE8
:10EB200091EE60E00F94C2F1E1E0F0E01093570045
:10EB30001491812F0F940DF20F94DCF107CF8BE825
:10EB400092EE62E00F94F5F18BE492EE60E00F94A8
:10EB5000F5F10F94DCF100E010E019C0C8016F2D51
:10EB60000F947FFEFF2031F489E492EE60E00F9471
:10EB7000C2F10BC0F092C6008091C00086FFFCCFAE
:10EB80008091C00080648093C0000F5F1F4FC80158
:10EB900081519F41A0E0B0E0ABBFFC01F790BAE229
:10EBA000FB1621F0E2E000301E07C1F60F94DCF105
:10EBB0000F94DCF187E592EE60E00F94F5F10F948D
:10EBC000DCF1CC24DD2400E010E01EC0C8010F946D
:10EBD00077FEF82E882331F489E492EE60E00F94FA
:10EBE000C2F10BC08093C6008091C00086FFFCCFAD
:10EBF0008091C00080648093C000FE1419F00894D6
:10EC0000C11CD11C0F5F1F4FC80181519F41A0E063
:10EC1000B0E0ABBFFC01E790FAE2EF1621F022E092
:10EC20000030120799F60F94DCF10F94DCF182E6C4
:10EC300092EE60E00F94C2F1C60161E070E00F94C3
:10EC400034F20F94DCF10F94DCF110920202109276
:10EC50000302109204021092050278CE89E992EE26
:10EC600062E00F94F5F1279A2F9A16C02F9880E052
:10EC700090E0E0EDF7E03197F1F7019684369105E9
:10EC8000C1F72F9A80E090E0E0EDF7E03197F1F7DF
:10EC9000019684369105C1F78091C00087FFE6CFC9
:10ECA0008091C00087FFFCCF64C485EA92EE62E0E9
:10ECB0000F94F5F140910202509103026091040219
:10ECC0007091050281E020E10F9491F2809102029F
:10ECD00090910302A0910402B091050280509F4FD1
:10ECE000AF4FBF4F8093020290930302A0930402A0
:10ECF000B093050280509041A040B04008F426CE69
:10ED0000A4CF83EB92EE62E00F94F5F140910602FE
:10ED100050910702609108027091090280E020E1A1
:10ED20000F9491F28091060290910702A09108023F
:10ED3000B091090280509F4FAF4FBF4F80930602A2
:10ED400090930702A0930802B0930902FFCD80ECD4
:10ED500092EE62E00F94F5F183E792EE60E00F949B
:10ED6000F5F18FE792EE60E00F94F5F18BE892EE0B
:10ED700060E00F94F5F189E992EE60E00F94F5F10F
:10ED800085EA92EE60E00F94F5F183EB92EE60E09D
:10ED90000F94F5F180EC92EE60E00F94F5F187ECC2
:10EDA00092EE60E00F94F5F188ED92EE60E00F9442
:10EDB000F5F18FED92EE60E00F94F5F18AEE92EEB0
:10EDC00060E00F94F5F183E093EEBDCD87EC92EE19
:10EDD00062E00F94F5F181E40F947BF282E40F94EA
:10EDE0007BF283E40F947BF284E40F947BF285E45E
:10EDF0000F947BF286E40F947BF287E40F947BF20E
:10EE000088E40F947BF28AE40F947BF28BE40F94F6
:10EE10007BF28CE40F947BF299CD88ED92EE62E068
:10EE20000F94F5F1772473948824992409C48FED05
:10EE300092EE62E00F94F5F140910A0250910B02BC
:10EE400060910C0270910D0282E020E10F9491F22A
:10EE500080910A0290910B02A0910C02B0910D02D8
:10EE600080509F4FAF4FBF4F80930A0290930B0289
:10EE7000A0930C02B0930D0269CD8AEE92EE62E08F
:10EE80000F94F5F184EE90EE60E00F94F5F18FECC5
:10EE900091EE60E00F94F5F1662477244301CC5D98
:10EEA000DE4F19821882C452D140D401C301B695F5
:10EEB000A79597958795CA5DDE4F88839983AA8326
:10EEC000BB83C652D140CC5DDE4FA881B981C4520C
:10EED000D1401196CC5DDE4FB983A883C452D14096
:10EEE000CD0162E070E00F9434F2B0E2B093C6005E
:10EEF0008091C00086FFFCCF8091C0008064809329
:10EF0000C000EDE2E093C6008091C00086FFFCCF18
:10EF10008091C00080648093C000F0E2F093C6004E
:10EF20008091C00086FFFCCF8091C00080648093F8
:10EF3000C000CA5DDE4FE880F9800A811B81C6529D
:10EF4000D140BB27A12F902F8F2D0F940DF2CA5DBA
:10EF5000DE4F8881C652D1400F940DF2B0E2FB2EF5
:10EF6000F092C6008091C00086FFFCCF8091C00067
:10EF700080648093C0000DE30093C6008091C000C0
:10EF800086FFFCCF8091C00080648093C00010E2B7
:10EF90001093C6008091C00086FFFCCF8091C00016
:10EFA00080648093C0008BBEF3012791C65DDE4F65
:10EFB0002883CA52D140A22EBB24CC24DD2408943D
:10EFC000611C711C811C911C8BBEF3018791282E42
:10EFD0003324442455240894611C711C811C911C09
:10EFE0008BBEF3013791C55DDE4F3883CB52D140E4
:10EFF0000894611C711C811C911C8BBEF30147910C
:10F00000C45DDE4F4883CC52D140ADEFEA2EAFEF66
:10F01000FA2EAFEF0A2FAFEF1A2F6E0C7F1C801E57
:10F02000911E142D032DF22CEE24EA0CFB1C0C1D5A
:10F030001D1D0F940DF220E22093C6008091C000A8
:10F0400086FFFCCF8091C00080648093C000C65DC5
:10F05000DE4F8881CA52D1400F940DF230E23093D6
:10F06000C6008091C00086FFFCCF8091C000806404
:10F070008093C000C45DDE4F8881CC52D1400F9494
:10F080000DF240E24093C6008091C00086FFFCCFA5
:10F090008091C00080648093C000C55DDE4F888190
:10F0A000CB52D1400F940DF250E25093C6008091A4
:10F0B000C00086FFFCCF8091C00080648093C000B8
:10F0C0008FEFE8168FEFF80680E0080780E018075A
:10F0D00031F484E092EE60E00F94C2F1DFC0D80119
:10F0E000C7018070907CA070B0708050904CA040A0
:10F0F000B040D1F52FEF3FE340E050E0E222F322B1
:10F1000004231523CA5DDE4FA880B980CA80DB8046
:10F11000C652D140AE0CBF1CC01ED11EAA0CBB1CD7
:10F12000CC1CDD1C8EE092EE60E00F94C2F1BB2798
:10F13000A12F902F8F2D0F940DF28E2D0F940DF285
:10F1400030E23093C6008091C00086FFFCCF8091F2
:10F15000C00080648093C0004EE34093C60080915D
:10F16000C00086FFFCCF87C08EE09EEFA0E0B0E03D
:10F17000E822F9220A231B239CE0E91694E9F90608
:10F1800090E0090790E0190709F088C0C45DDE4FE0
:10F19000A881CC52D140EA2EFF2400E010E0102FCD
:10F1A0000F2DFE2CEE24C55DDE4FB881CB52D14031
:10F1B000EB0EF11C011D111DD601C501817090706F
:10F1C000A070B070DC0199278827E80EF91E0A1F8D
:10F1D0001B1F20EF30E040E050E0A222B322C42207
:10F1E000D52241E1AA0CBB1CCC1CDD1C4A95D1F7F1
:10F1F000EA0CFB1C0C1D1D1D81E090E0A0E0B0E0BE
:10F20000282239224A225B2235E1220C331C441C7D
:10F21000551C3A95D1F7E20CF31C041D151D57013E
:10F220006801AA0CBB1CCC1CDD1C85E192EE60E0E1
:10F230000F94C2F1C801AA27BB270F940DF2BB2778
:10F24000A12F902F8F2D0F940DF28E2D0F940DF274
:10F2500090E29093C6008091C00086FFFCCF809121
:10F26000C00080648093C000AEE3A093C60080918C
:10F27000C00086FFFCCF8091C00080648093C000F6
:10F28000C601AA27BB270F940DF2BB27AD2D9C2DDD
:10F290008B2D0F940DF28A2D0F940DF20F94DCF14B
:10F2A000CC5DDE4FE881F981C452D140F99709F471
:10F2B0004DCBF4E0EF2EF12C012D112D6E0C7F1CA7
:10F2C000801E911EF2CD83E093EE62E00F94F5F183
:10F2D0008AE192EE60E00F94C2F18091C00087FF56
:10F2E000FCCF1091C6001F751093C6008091C0001E
:10F2F00086FFFCCF8091C00080648093C0000F9493
:10F30000DCF1812F81548A3108F036C1163409F4BA
:10F3100095C0173490F4133409F44EC0143430F40B
:10F320001134F1F0123409F01DC130C0143409F465
:10F3300059C0153409F016C16BC01A3409F4C4C0A1
:10F340001B3438F4173409F48FC0183409F00AC19B
:10F35000A1C01B3409F4D2C01C3409F003C1E8C0B9
:10F360008FEF81B90DC082B1809582B980E090E0C5
:10F37000E0EDF7E03197F1F70196883C9105C1F790
:10F380008091C00087FFEFCF12B8EFC08FEF84B934
:10F390000DC085B1809585B980E090E0E0EDF7E0A3
:10F3A0003197F1F70196883C9105C1F78091C00033
:10F3B00087FFEFCF15B8D9C08FEF87B90DC088B1DF
:10F3C000809588B980E090E0E0EDF7E03197F1F7C3
:10F3D0000196883C9105C1F78091C00087FFEFCF6F
:10F3E00018B8C3C08FEF8AB90DC08BB180958BB9A7
:10F3F00080E090E0E0EDF7E03197F1F70196883C8E
:10F400009105C1F78091C00087FFEFCF1BB8ADC059
:10F410008FEF8DB90DC08EB180958EB980E090E0F0
:10F42000E0EDF7E03197F1F70196883C9105C1F7DF
:10F430008091C00087FFEFCF1EB897C08FEF80BBD1
:10F440000DC081B3809581BB80E090E0E0EDF7E0F6
:10F450003197F1F70196883C9105C1F78091C00082
:10F4600087FFEFCF11BA81C08FEF83BB0DC084B38C
:10F47000809584BB80E090E0E0EDF7E03197F1F714
:10F480000196883C9105C1F78091C00087FFEFCFBE
:10F4900014BA6BC08FEF809301010FC080910201FD
:10F4A00080958093020180E090E0E0EDF7E03197F5
:10F4B000F1F70196883C9105C1F78091C00087FF64
:10F4C000EDCF1092020151C08FEF809304010FC065
:10F4D0008091050180958093050180E090E0E0ED4A
:10F4E000F7E03197F1F70196883C9105C1F78091DB
:10F4F000C00087FFEDCF1092050137C08FEF8093DA
:10F5000007010FC08091080180958093080180E079
:10F5100090E0E0EDF7E03197F1F70196883C910536
:10F52000C1F78091C00087FFEDCF109208011DC088
:10F530008FEF80930A010FC080910B01809580931B
:10F540000B0180E090E0E0EDF7E03197F1F70196F4
:10F55000883C9105C1F78091C00087FFEDCF1092E4
:10F560000B0103C085E292EEEEC98091C00087FFD7
:10F57000FCCF8091C600EAC988E392EEE4C98CE131
:10F5800091EEE1C988249924933011F1943028F444
:10F59000913089F09230B8F408C0953061F195301F
:10F5A000F0F0963009F048C043C02B3109F042C951
:10F5B00091E06BE13FC96227C15DDE4F2883CF52E6
:10F5C000D14092E037C9B22FA0E0622793E032C960
:10F5D000822F90E0A82BB92B622794E02BC92E3004
:10F5E00009F039C3622795E0C05DDE4F19821882A9
:10F5F000C053D1401FC9E1E0F0E0EC0FFD1FC05D3A
:10F60000DE4F08811981C053D140E00FF11F2083E4
:10F610000F5F1F4FC05DDE4F19830883C053D14079
:10F6200062270A171B0709F005C9D80196E002C92D
:10F63000261709F010C303C0973009F0FBC87724E0
:10F640009981933109F412C19431C8F4963009F4C8
:10F65000D8C0973050F4923009F406C1933009F4C1
:10F660006DC0913009F059C253C0913109F477C08F
:10F67000923108F0BBC0903109F04FC2F5C098310B
:10F6800009F487C0993150F4953109F4EFC09531F0
:10F6900008F4C6C1963109F040C2C2C19A3109F4DA
:10F6A0006CC09A3108F491C09B3109F45BC09D3164
:10F6B00009F033C29D81903359F48F81882311F46E
:10F6C0009EE11CC0813011F091E018C098E916C08D
:10F6D000892F807591F0903539F4E0E0F0E089E011
:10F6E0008093570094910AC0983539F4E3E0F0E034
:10F6F00089E080935700949101C090E01A821B82A8
:10F700008D818C831D829E831F8227E030E009C299
:10F710001A8288E08B8381E48C8386E58D8382E581
:10F720008E8389E48F8383E5888780E589878FE5E9
:10F730008A8782E38B872BE030E0F3C18A818139AD
:10F7400041F0823941F0803911F48FE005C080E04A
:10F7500003C082E001C08AE01A828B8344C0772410
:10F76000739482C08D81882311F48EE12CC0813086
:10F7700011F081E028C088E926C01A82E1E0F0E0BB
:10F7800089E08093570084918B831C8224E030E0D1
:10F79000C8C18B81803589F48C81883039F4E2E0EE
:10F7A000F0E089E08093570084910DC0E0E0F0E044
:10F7B00089E080935700849106C0E3E0F0E089E09F
:10F7C0008093570084911A82DFCF8D81836C99E0FA
:10F7D000E1E0F0E0082E90935700E89507B600FCB2
:10F7E000FDCF1A821B8223E030E09BC180EC8A832C
:10F7F000CE5CDE4F188219821A821B82C253D1401E
:10F800008EC18A8190E0A0E0B0E0582F44273327D2
:10F8100022278B8190E0A0E0B0E0DC0199278827C7
:10F82000282B392B4A2B5B2B8D8190E0A0E0B0E098
:10F83000282B392B4A2B5B2B8C8190E0A0E0B0E089
:10F84000BA2FA92F982F8827282B392B4A2B5B2BCF
:10F85000220F331F441F551FC05EDE4F288339839C
:10F860004A835B83C052D1401A8259C13A81C95C34
:10F87000DE4F3883C753D140CA5CDE4F1882C6536F
:10F88000D1408B81C82EDD24CA5CDE4F488159816E
:10F89000C653D140C42AD52A933109F082C0CE5C28
:10F8A000DE4F88819981AA81BB81C253D1408050AB
:10F8B000904CA340B04030F583E0CE5CDE4FE88052
:10F8C000F9800A811B81C253D140F70100935B008C
:10F8D00080935700E89507B600FCFDCFCE5CDE4F65
:10F8E000088119812A813B81C253D14000501F4FAA
:10F8F0002F4F3F4FCE5CDE4F088319832A833B8313
:10F90000C253D140C05EDE4F488159816A817B81FC
:10F91000C052D140DE011B9631E08C9111962C91A2
:10F9200011971296C75CDE4F2883C953D140C85C3B
:10F93000DE4F1882C853D14090E0C85CDE4FE881AA
:10F94000F981C853D1408E2B9F2B0C01FA01609393
:10F950005B0030935700E89511244E5F5F4F6F4F67
:10F960007F4F0EEFE02E0FEFF02ECE0CDF1CC114F8
:10F97000D10499F685E0C05EDE4F088119812A81A5
:10F980003B81C052D140F80120935B008093570027
:10F99000E89507B600FCFDCF81E180935700E8951C
:10F9A00035C0C05EDE4F88819981AA81BB81C0527B
:10F9B000D140B695A795979587957C018601ABE0D8
:10F9C000AA2EB12CAC0EBD1E0BC0D5016D915D01F0
:10F9D000C7010F947FFE0894E11CF11C01501040F8
:10F9E0000115110591F7A60160E070E0440F551F65
:10F9F000661F771FC05EDE4FE880F9800A811B8199
:10FA0000C052D1404E0D5F1D601F711F1A82C05E33
:10FA1000DE4F488359836A837B83C052D1407FC0C5
:10FA2000FA80C55CDE4FF882CB53D140C65CDE4F16
:10FA30001882CA53D1408B81C82EDD24C65CDE4FAC
:10FA400008811981CA53D140C02AD12A1A828981DA
:10FA5000BE016D5F7F4F843121F59601C05EDE4FA0
:10FA6000E880F9800A811B81C052D1400BBFF701A9
:10FA700087919691DB018C9311969C936E5F7F4FDB
:10FA8000D801C7010296A11DB11DC05EDE4F88835B
:10FA90009983AA83BB83C052D14022503040F1F6F3
:10FAA00036C0C05EDE4F288139814A815B81C052F9
:10FAB000D1400894C108D108760100E010E0089414
:10FAC000C11CD11C0894E11CF11C011D111DE20E8A
:10FAD000F31E041F151F21BDBB27A52F942F832FB5
:10FAE00082BD2F5F3F4F4F4F5F4FF89A80B5DB01CC
:10FAF0008D93BD012E153F054007510761F7C05E8C
:10FB0000DE4F288339834A835B83C052D1409601FC
:10FB10002D5F3F4FFB01108204C080EC8A8322E0FE
:10FB200030E08BE18093C6008091C00086FFFCCF5F
:10FB30008091C00080648093C000C15DDE4FF88179
:10FB4000CF52D140F093C6008091C00086FFFCCF19
:10FB50008091C00080648093C000432F3093C60022
:10FB60008091C00086FFFCCF8091C00080648093AC
:10FB7000C000922F2093C6008091C00086FFFCCF6A
:10FB80008091C00080648093C0008EE08093C600A6
:10FB90008091C00086FFFCCF8091C000806480937C
:10FBA000C00065E1C15DDE4FE880CF52D1406E25D7
:10FBB00069276427FE01319610C090819093C6009A
:10FBC0008091C00086FFFCCF31968091C000806498
:10FBD0008093C0006927215030402115310569F715
:10FBE0006093C6008091C00086FFFCCF8091C0006A
:10FBF00080648093C00085B1805885B9772081F4F6
:10FC0000C15DDE4F0881CF52D1400F5FC15DDE4F35
:10FC10000883CF52D14090E0A0E0B0E00D941AF4F8
:10FC200027982F9880E090E020ED37E0F901319798
:10FC3000F1F7019684369105C9F700008091C00064
:10FC40008D7F8093C00081E180935700E895EE2777
:10FC5000FF270994FFCF90E00D941AF497FB092E2B
:10FC600007260AD077FD04D02ED006D000201AF443
:10FC7000709561957F4F0895F6F7909581959F4F08
:10FC80000895A1E21A2EAA1BBB1BFD010DC0AA1FDD
:10FC9000BB1FEE1FFF1FA217B307E407F50720F0F5
:10FCA000A21BB30BE40BF50B661F771F881F991F70
:10FCB0001A9469F760957095809590959B01AC01B9
:10FCC000BD01CF010895AA1BBB1B51E107C0AA1FAC
:10FCD000BB1FA617B70710F0A61BB70B881F991FED
:10FCE0005A95A9F780959095BC01CD010895F99991
:10FCF000FECF92BD81BDF89A992780B50895262F31
:10FD0000F999FECF1FBA92BD81BD20BD0FB6F89400
:0EFD1000FA9AF99A0FBE01960895F894FFCF63
:040000033000E000E9
:00000001FF