:1000000007C100000C9472080C9447080C941C085B
:10001000E8C70000BBC700008EC7000061C7000032
:1000200034C7000026C1000024C1000022C1000026
:1000300020C100000C941D0C1CC100001AC100005E
:1000400018C100000C94FD0914C1000012C1000089
:100050000C9418090EC100000CC10000CCC60000B1
:1000600008C10000A0C2000075C2000002C100006B
:1000700000C10000FEC00000FCC00000FAC000008B
:100080000C94D009F6C00000F4C000000C94EF08F6
:10009000F0C00000EEC00000ECC000000C942A0A82
:1000A000E8C00000E6C000000C94A309E2C0000014
:1000B000E0C000000C94C608DCC000000C94760977
:1000C000D8C00000D6C000000C949D08D2C000002B
:1000D000D0C00000CEC00000CCC00000CAC00000EC
:1000E000C8C000005405570546054A054E058E0553
:1000F0005B055F05650569056D05730577057B057E
:100100008E0581058505890500000A0B02090C0D85
:100110000E080703040100000000000000000000BA
:1001200000000000000000000000000000000000CF
:10013000000000001211100000000000000000008C
:1001400000000000000000000000000000000000AF
:100150002200250028002B002E003100340002016F
:100160000000050108010B01000021002400270008
:100170002A002D00300033000101000004010701B6
:100180000A0105050505070508080808020202021C
:100190000A0A080804040404010101010101010123
:1001A0000303030303030303040707070C0C0C0CEE
:1001B0000C0C0C0C020202020606060606060606D7
:1001C0000B0B0B0B0B0B0B0B010210202008081064
:1001D00020401020408002010201080402010102B7
:1001E0000408102040808040201008040201800490
:1001F00002018040201008040201080402010102EB
:100200000408102040800102040810204080F912E8
:1002100011241FBECFEFD1E2DEBFCDBF00E00CBF87
:1002200012E0A0E0B2E0ECECFEE200E00BBF02C0A6
:1002300007900D92A63BB107D9F726E0A6EBB2E0F6
:1002400001C01D92AE3BB207E1F711E0C8E0D1E07A
:1002500000E006C021970109802FFE010E9444178B
:10026000C730D10780E00807A9F70E94B0100C94AE
:100270006417C6CECF92DF92EF92FF920F931F9337
:10028000CF93DF936C017A018B01C0E0D0E0CE15F3
:10029000DF0589F0D8016D918D01D601ED91FC91BA
:1002A0000190F081E02DC6011995892B11F47E0192
:1002B00002C02196ECCFC701DF91CF911F910F9122
:1002C000FF90EF90DF90CF900895FC01538D448D07
:1002D000252F30E0842F90E0821B930B541710F0F1
:1002E000CF96089501970895FC01918D828D9817FE
:1002F00061F0828DDF01A80FB11D5D968C91928D0A
:100300009F5F9F73928F90E008958FEF9FEF089506
:10031000FC01918D828D981731F0828DE80FF11DCF
:10032000858D90E008958FEF9FEF0895FC01918DEA
:10033000228D892F90E0805C9F4F821B91098F73E3
:10034000992708958EEB93E0F1DF21E0892B09F4E2
:1003500020E0822F08950F931F93CF93DF931F9276
:10036000CDB7DEB78C01DC018C91803308F057C02B
:10037000862F69830E949110F8018081E82FF0E0B8
:100380009F01220F331FE20FF31FE055FB4F6981DE
:100390006F739081907C692B60839EE8D8011196E1
:1003A0009C93119794E612969C936CE00E942517FB
:1003B000BCE08B9FB001112440E050E09A01260F71
:1003C000371FF901EE0FFF1F2E0F3F1FF901E055F8
:1003D000FB4F908196FD16C04F5F5F4F4C3051052B
:1003E00069F7813021F51092800082E080938100CE
:1003F0001092850010928400B19A80916F00826003
:1004000080936F00D801EC91F0E0CF01880F991F25
:10041000E80FF91FE055FB4F808180648083F8016D
:1004200080810F90DF91CF911F910F9108958230BD
:1004300061F41092900080939100109295001092B8
:10044000940088BB80937100DDCF833069F41092F3
:10045000A00082E08093A1001092A5001092A40059
:1004600089BB80937200CECF8111CCCF1092200136
:1004700082E08093210110922501109224018ABB11
:1004800080937300BFCFEF92FF920F931F93CF9390
:10049000DF93EC0181E0888F9B8D8C8D981305C0D4
:1004A000E889F989808185FD23C0F62E0B8D10E047
:1004B0000F5F1F4F0F731127E02E8C8DE8120BC0BA
:1004C0000FB607FCFACFE889F989808185FFF5CF5F
:1004D000CE019AD2F2CF8B8DFE01E80FF11DE35AC7
:1004E000FF4FF0820B8FEA89FB898081806207C011
:1004F000EE89FF896083E889F9898081806480833F
:1005000081E090E0DF91CF911F910F91FF90EF90EC
:100510000895CF93DF93EC01888D8823C1F0EA8999
:10052000FB89808185FD05C0A889B9898C9186FDEC
:100530000EC00FB607FCF5CF808185FFF2CFA889EA
:10054000B9898C9185FFEDCFCE015ED2E8CFDF91E6
:10055000CF9108951F920F920FB60F9211240BB6F0
:100560000F922F933F934F935F936F937F938F934C
:100570009F93AF93BF93EF93FF938EEB93E044D29F
:10058000FF91EF91BF91AF919F918F917F916F916B
:100590005F914F913F912F910F900BBE0F900FBE27
:1005A0000F901F9018951F920F920FB60F92112463
:1005B0000BB60F922F938F939F93EF93FF93E0913E
:1005C000CE03F091CF038081E091D403F091D50365
:1005D00082FD12C090818091D7038F5F8F7320912D
:1005E000D803821751F0E091D703F0E0E254FC4FBA
:1005F000958F8093D70301C08081FF91EF919F91E8
:100600008F912F910F900BBE0F900FBE0F901F90E8
:10061000189580E090E0892B19F094DE811125C0B7
:1006200080E090E0892B41F080E090E0892B21F080
:100630000E94000081111CC080E090E0892B41F0F5
:1006400080E090E0892B21F00E940000811113C00E
:1006500080E090E0892BA1F080E090E0892B81F090
:100660000E94000081110AC008950E940000D8CFA6
:100670000E940000E1CF0E940000EACF0C9400002D
:100680000895089585ED8093BC008091BC0084FDA1
:10069000FCCF10929A03089540912003262F30E05A
:1006A000240F311D21323105DCF420919A032430CE
:1006B000C9F4FC0180E090E0861758F430912003E3
:1006C0002191DC01A250BD4FA30FB11D2C930196C7
:1006D000F3CF80912003680F6093200380E008959A
:1006E00081E0089582E008950895E0915303809198
:1006F0005203E81730F4F0E0EC5AFC4F808190E0B0
:1007000008958FEF9FEF08959091530380915203C6
:10071000981750F4E92FF0E0EC5AFC4F208130E0BC
:100720009F5F9093530302C02FEF3FEFC9010895DD
:100730008091520390E020915303821B9109089508
:10074000CF92DF92EF92FF920F931F93CF93DF939D
:100750007C01262F972F8A018091BD03882391F079
:10076000C62FD72F6E01C40ED51ECC15DD0569F03E
:100770006991D701ED91FC910190F081E02DC701C5
:100780001995F3CF642F822F87DFC801DF91CF91B6
:100790001F910F91FF90EF90DF90CF900895CF932E
:1007A000DF931F92CDB7DEB769832091BD0322236B
:1007B000D1F02091BB03203240F021E030E0FC0179
:1007C0003383228380E090E014C08091BC03E82F43
:1007D000F0E0E556FC4F998190838F5F8093BC03D6
:1007E0008093BB0304C061E0CE01019655DF81E038
:1007F00090E00F90DF91CF910895089580E090E010
:1008000008954F925F926F927F928F929F92AF92D4
:10081000BF92CF92DF92EF92FF920F931F93CF93ED
:10082000DF93CDB7DEB72C970FB6F894DEBF0FBEBF
:10083000CDBF8C018FB7F89420914A0330914B03C0
:1008400040914C0350914D0329873A874B875C8731
:100850008FBFD8011C96ED91FC911D97408051806F
:10086000628073805096ED91FC9151976081718107
:1008700082819381A30192010E946E156B017C011C
:10088000F80120813181428153810E94BE164B01C3
:100890005C01D8015A962D913D914D915C915D97E7
:1008A000C301B2010E946E15F80120853185428591
:1008B00053850E94BE169B01AC01C501B4010E9484
:1008C0006E156D837E838F839887D80114962D9142
:1008D0003D914D915C911797C701B6010E94BE16DC
:1008E000F80126893789408D518D0E946F154B0183
:1008F0005C01D80156966D937D938D939C93599787
:100900009296CD90DD90ED90FC909597A701960181
:100910000E94BA16181634F4F801C68AD78AE08EF7
:10092000F18E1CC0D8015E962D913D914D915C9148
:10093000919729833A834B835C83C501B4010E945C
:10094000D31587FF0BC029813A814B815C81D80187
:1009500056962D933D934D935C935997F8012689B4
:100960003789408D518D6D817E818F8198850E9460
:100970006F154B015C01A70196010E94BA1618166B
:100980008CF0D8015E96CD90DD90ED90FC90919723
:10099000A7019601B401C5010E94D31587FD02C0CD
:1009A00064017501D8011E96ED91FC911F97C082DC
:1009B000D182E282F382F801428E538E648E758E6C
:1009C00029853A854B855C8552962D933D934D93B1
:1009D0005C93559781E02C960FB6F894DEBF0FBE5E
:1009E000CDBFDF91CF911F910F91FF90EF90DF90DE
:1009F000CF90BF90AF909F908F907F906F905F90BF
:100A00004F9008950E946017FC01848DDF01A80FAC
:100A1000B11DA35ABF4F2C91848D90E001968F7326
:100A20009927848FA689B7892C93A089B1898C9145
:100A300080648C93938D848D981306C00288F3890B
:100A4000E02D80818F7D80830895362F90E0FC011A
:100A5000E85FFE4F4491FC01E853FE4F2491FC01F6
:100A6000EE57FE4F9491992309F46BC0442309F487
:100A700055C050E0FA013197E231F10508F04EC05F
:100A80008827EE58FF4F8F4F0C94441780918000B9
:100A90008F7707C0809180008F7D03C08091800098
:100AA000877F809380003AC084B58F7702C084B579
:100AB0008F7D84BD33C08091B0008F7703C080915B
:100AC000B0008F7D8093B00029C0809190008F7717
:100AD00007C0809190008F7D03C080919000877F38
:100AE000809390001BC08091A0008F7707C08091F9
:100AF000A0008F7D03C08091A000877F8093A0001D
:100B00000DC0809120018F7707C0809120018F7DDB
:100B100003C080912001877F80932001E92FF0E0BE
:100B2000EE0FFF1FE25BFE4FA591B4918FB7F894D3
:100B3000EC91311103C020952E2301C02E2B2C9354
:100B40008FBF0895CF92DF92EF92FF920F931F9382
:100B5000CF93DF936C018B017A01EC01CB5BDC4F0F
:100B6000888187FF04C0FB011182108224C08CE0C1
:100B70008C9D90018D9D300D11248881A901480F15
:100B8000511D87FD5A958091400590E048175907FF
:100B900094F48881A901480F511D87FD5A95CA0117
:100BA000FA01EE0FFF1F8E0F9F1FFC01E055FB4F58
:100BB000808186FD19C088818F5F88838CE08C9D41
:100BC00090018D9D300D11248881A901480F511D80
:100BD00087FD5A958091400590E048175907B4F475
:100BE00088818C303CF112C08881280F311D87FD2F
:100BF0003A95F901EE0FFF1F2E0F3F1FF901E05547
:100C0000FB4F808160E08F7320DFD5CFF8018081BA
:100C10009181049680349C4918F480E49CE904C0D6
:100C2000F801808191810496F701918380838FEF91
:100C3000888344C0F801408151818881B901680FDF
:100C4000711D87FD7A95CB01FB01EE0FFF1F8E0F03
:100C50009F1FFC01E055FB4F81819281840F951FFE
:100C6000F701918380838881A901480F511D87FD79
:100C70005A95CA01FA01EE0FFF1F8E0F9F1FFC014C
:100C8000E055FB4F808186FF19C08881280F311DF8
:100C900087FD3A95F901EE0FFF1F2E0F3F1FF90157
:100CA000E055FB4F808161E08F73DF91CF911F9101
:100CB0000F91FF90EF90DF90CF90C7CEDF91CF9153
:100CC0001F910F91FF90EF90DF90CF9008953FB765
:100CD000F89480914E0390914F03A0915003B091EE
:100CE000510326B5A89B05C02F3F19F00196A11D01
:100CF000B11D3FBFBA2FA92F982F8827820F911DB2
:100D0000A11DB11DBC01CD0142E0660F771F881FF8
:100D1000991F4A95D1F70895DADF2091E0023091CA
:100D2000E102621B730BCB018556910983359B4011
:100D300020F47093F9026093F802C9DF6093E00237
:100D40007093E1028093E2029093E3020895BFDF83
:100D50002091DC023091DD02621B730BCB018556C2
:100D6000910983359B4020F47093EF026093EE026B
:100D7000AEDF6093DC027093DD028093DE0290931D
:100D8000DF020895A4DF2091D8023091D902621BBE
:100D9000730BCB018556910983359B4020F47093EA
:100DA000B7026093B60293DF6093D8027093D902C2
:100DB0008093DA029093DB02089589DF2091D402B8
:100DC0003091D502621B730BCB0185569109833597
:100DD0009B4020F47093F7026093F60278DF6093F3
:100DE000D4027093D5028093D6029093D70281E00B
:100DF0008093D30208951F920F920FB60F92112481
:100E00002F933F938F939F93AF93BF9380914A0308
:100E100090914B03A0914C03B0914D033091490345
:100E200023E0230F2D3720F40196A11DB11D05C02D
:100E300026E8230F0296A11DB11D2093490380933C
:100E40004A0390934B03A0934C03B0934D038091BE
:100E50004E0390914F03A0915003B091510301961E
:100E6000A11DB11D80934E0390934F03A093500397
:100E7000B0935103BF91AF919F918F913F912F916B
:100E80000F900FBE0F901F9018951F920F920FB6E4
:100E90000F9211240BB60F922F933F934F935F93B2
:100EA0006F937F938F939F93AF93BF93EF93FF9332
:100EB000E0910E02F0910F021995FF91EF91BF9111
:100EC000AF919F918F917F916F915F914F913F91E2
:100ED0002F910F900BBE0F900FBE0F901F90189583
:100EE0001F920F920FB60F9211240BB60F922F93F1
:100EF0003F934F935F936F937F938F939F93AF93A2
:100F0000BF93EF93FF93E0910C02F0910D021995BE
:100F1000FF91EF91BF91AF919F918F917F916F91D1
:100F20005F914F913F912F910F900BBE0F900FBE8D
:100F30000F901F9018951F920F920FB60F921124C9
:100F40000BB60F922F933F934F935F936F937F93C3
:100F50008F939F93AF93BF93EF93FF93E091020220
:100F6000F09103021995FF91EF91BF91AF919F917D
:100F70008F917F916F915F914F913F912F910F9042
:100F80000BBE0F900FBE0F901F9018951F920F92DF
:100F90000FB60F9211240BB60F922F933F934F93DE
:100FA0005F936F937F938F939F93AF93BF93EF93D1
:100FB000FF93E0910002F09101021995FF91EF91EA
:100FC000BF91AF919F918F917F916F915F914F9161
:100FD0003F912F910F900BBE0F900FBE0F901F905F
:100FE00018951F920F920FB60F9211240BB60F9205
:100FF0002F933F934F935F936F937F938F939F9321
:10100000AF93BF93EF93FF93E0910A02F0910B022D
:101010001995FF91EF91BF91AF919F918F917F9122
:101020006F915F914F913F912F910F900BBE0F9059
:101030000FBE0F901F9018951F920F920FB60F9230
:1010400011240BB60F922F933F934F935F936F939F
:101050007F938F939F93AF93BF93EF93FF93E09111
:101060000802F09109021995FF91EF91BF91AF919C
:101070009F918F917F916F915F914F913F912F91B0
:101080000F900BBE0F900FBE0F901F9018951F92E0
:101090000F920FB60F9211240BB60F922F933F931E
:1010A0004F935F936F937F938F939F93AF93BF9370
:1010B000EF93FF93E0910602F09107021995FF91DB
:1010C000EF91BF91AF919F918F917F916F915F91C0
:1010D0004F913F912F910F900BBE0F900FBE0F902D
:1010E0001F9018951F920F920FB60F9211240BB6F6
:1010F0000F922F933F934F935F936F937F938F93B1
:101100009F93AF93BF93EF93FF93E0910402F0910D
:1011100005021995FF91EF91BF91AF919F918F912A
:101120007F916F915F914F913F912F910F900BBEE7
:101130000F900FBE0F901F9018951F920F920FB631
:101140000F9211240BB60F922F933F934F935F93FF
:101150006F937F938F939F93AF93BF93EF93FF937F
:10116000E0E0F0E01995FF91EF91BF91AF919F9171
:101170008F917F916F915F914F913F912F910F9040
:101180000BBE0F900FBE0F901F9018951F920F92DD
:101190000FB60F9211240BB60F922F933F934F93DC
:1011A0005F936F937F938F939F93AF93BF93EF93CF
:1011B000FF93E0E0F0E01995FF91EF91BF91AF91BF
:1011C0009F918F917F916F915F914F913F912F915F
:1011D0000F900BBE0F900FBE0F901F9018951F928F
:1011E0000F920FB60F9211240BB60F922F933F93CD
:1011F0004F935F936F937F938F939F93AF93BF931F
:10120000EF93FF93E0E0F0E01995FF91EF91BF912C
:10121000AF919F918F917F916F915F914F913F918E
:101220002F910F900BBE0F900FBE0F901F9018952F
:101230001F920F920FB60F9211240BB60F922F939D
:101240003F934F935F936F937F938F939F93AF934E
:10125000BF93EF93FF93E0E0F0E01995FF91EF91DA
:10126000BF91AF919F918F917F916F915F914F91BE
:101270003F912F910F900BBE0F900FBE0F901F90BC
:101280001895FC019081903380F5818128E830E049
:10129000281B310987FD3395220F331F220F331F7F
:1012A000621773077CF0828128E532E0281B310940
:1012B00087FD3395220F331F220F331F62177307E9
:1012C0000CF49B0122503109220F331F4FB7F894C1
:1012D000892F90E0FC01EE0FFF1F8E0F9F1FFC0176
:1012E000E055FB4F328321834FBF08951F920F9229
:1012F0000FB60F9211240BB60F922F933F934F937B
:101300005F936F937F938F939F93AF93BF93EF936D
:10131000FF9348E251E064E271E080E090E012DC8B
:10132000FF91EF91BF91AF919F918F917F916F91BD
:101330005F914F913F912F910F900BBE0F900FBE79
:101340000F901F9018951F920F920FB60F921124B5
:101350000BB60F922F933F934F935F936F937F93AF
:101360008F939F93AF93BF93EF93FF9348EA50E01F
:1013700064EA70E083E090E0E5DBFF91EF91BF91DC
:10138000AF919F918F917F916F915F914F913F911D
:101390002F910F900BBE0F900FBE0F901F901895BE
:1013A0001F920F920FB60F9211240BB60F922F932C
:1013B0003F934F935F936F937F938F939F93AF93DD
:1013C000BF93EF93FF9348E950E064E970E082E057
:1013D00090E0B8DBFF91EF91BF91AF919F918F911A
:1013E0007F916F915F914F913F912F910F900BBE25
:1013F0000F900FBE0F901F9018951F920F920FB66F
:101400000F9211240BB60F922F933F934F935F933C
:101410006F937F938F939F93AF93BF93EF93FF93BC
:1014200048E850E064E870E081E090E08BDBFF91F9
:10143000EF91BF91AF919F918F917F916F915F914C
:101440004F913F912F910F900BBE0F900FBE0F90B9
:101450001F9018951F920F920FB60F9211240BB682
:101460000F922F933F934F935F936F937F938F933D
:101470009F93AF93BF93EF93FF938091B900887FC1
:10148000803609F49CC068F5883209F45BC090F49A
:10149000803109F454C038F4882309F4F6C0883048
:1014A00009F44DC0F6C0883109F44CC0803209F40B
:1014B0005DC0EFC0803409F468C048F4803309F49B
:1014C00055C0883309F0E5C080939803D8C08035B3
:1014D00009F44FC0883509F45DC0883409F0D9C0DB
:1014E000D6C0883909F4C7C0A8F4883709F467C0A2
:1014F00038F4883609F463C0803709F460C0C9C085
:10150000883809F4B8C0803909F45FC0803809F020
:10151000C0C05BC0803B09F486C038F4803A09F44F
:1015200066C0883A09F47FC0B4C0803C09F4A7C003
:10153000883C09F4A4C0883B09F48AC0AAC0809101
:10154000750310C09091970380919603981770F5DA
:10155000E091970381E08E0F80939703F0E0EA58C3
:10156000FC4F80818093BB0085EC86C080939803FC
:101570008EC0E091970381E08E0F80939703809156
:10158000BB00F0E0EA58FC4F808390919703809174
:1015900096036EC0E091970381E08E0F80939703CE
:1015A0008091BB00F0E0EA58FC4F80838091990362
:1015B00081116DC081E08093740384EA61C083E08F
:1015C00080939A0310924403CFCF809144038032DA
:1015D00008F051C0E091440381E08E0F80934403F2
:1015E0008091BB00F0E0EC5DFC4F8083BDCF85ECCB
:1015F0008093BC0010929A0380914403803230F4AF
:10160000E0914403F0E0EC5DFC4F108260914403F4
:1016100070E0E0912203F091230384E293E01995B6
:101620001092440336C084E080939A031092210301
:1016300010922003E0911E03F0911F0319958091F1
:101640002003811105C081E0809320031092FE02E7
:10165000E091210381E08E0F80932103F0E0E250BE
:10166000FD4F80818093BB009091210380912003E6
:10167000981708F479CF85E88093BC000AC085EC00
:101680008093BC0010929A0304C0109298030E94A9
:101690004203FF91EF91BF91AF919F918F917F9105
:1016A0006F915F914F913F912F910F900BBE0F90D3
:1016B0000FBE0F901F9018954F925F926F927F927E
:1016C0008F929F92AF92BF92EF92FF920F931F93D0
:1016D000CF93DF93EC014A015B01280139014E8F62
:1016E0005F8F68A379A30AA31BA32CA33DA3EE8459
:1016F000FF84F7016081718182819381A901980142
:101700000E94BA16F70118162CF4408251826282A8
:1017100073820FC06081718182819381A5019401E0
:101720000E94D31587FF05C0F70180829182A282B3
:10173000B3824E885F88688C798C8AA09BA0ACA00D
:10174000BDA0A5019401C301B2010E94BA161816EA
:1017500064F08E8C9F8CA8A0B9A0A5019401C30150
:10176000B2010E94D31587FF04C08E8A9F8AA88E7B
:10177000B98EDF91CF911F910F91FF90EF90BF90A5
:10178000AF909F908F907F906F905F904F90089553
:101790008F929F92AF92BF92CF92DF92EF92FF9281
:1017A000CF93DF93EC012FB7F89480914A03909187
:1017B0004B03A0914C03B0914D032FBF8A8B9B8BA1
:1017C000AC8BBD8BEC85FD8580819181A281B3813D
:1017D0008A8F9B8FAC8FBD8FEE85FF85C080D180B7
:1017E000E280F380CE8ADF8AE88EF98E8AA09BA001
:1017F000ACA0BDA0A5019401C701B6010E94BA1614
:10180000181664F08E8C9F8CA8A0B9A0A501940135
:10181000C701B6010E94D31587FF04C08E8A9F8A34
:10182000A88EB98EDF91CF91FF90EF90DF90CF908F
:10183000BF90AF909F908F9008951F920F920FB618
:101840000F9211240BB60F922F923F924F925F92FC
:101850006F927F928F929F92AF92BF92CF92DF92C0
:10186000EF92FF920F931F932F933F934F935F93AA
:101870006F937F938F939F93AF93BF93CF93DF9398
:10188000EF93FF938091FA029091FB02A091FC02EA
:10189000B091FD020196A11DB11D8093FA029093B3
:1018A000FB02A093FC02B093FD028091B6029091DE
:1018B000B702CCEDD5E09E01281B390BC90104E12C
:1018C00010E0B8010E943117072E000C880B990B0D
:1018D0000E940A16609323067093240680932506BF
:1018E000909326068091F8029091F9028C5D9540C4
:1018F000B8010E943117072E000C880B990B0E942B
:101900000A166093F5057093F6058093F70590939A
:10191000F8058091F6029091F7029E01281B390B81
:10192000C901B8010E943117072E000C880B990BD2
:101930000E940A166093C7057093C8058093C90575
:101940009093CA0560916B0470916C04072E000C93
:10195000880B990B0E940A1620E030E040E058E323
:101960000E94BE1620E030E04AEF54E40E94BE160A
:1019700060939D0570939E0580939F059093A005AD
:1019800060916D0470916E04072E000C880B990B0A
:101990000E940A1620E030E040E058E30E94BE16A4
:1019A00020E030E04AEF54E40E94BE1660936F05D9
:1019B00070937005809371059093720560916F0428
:1019C00070917004072E000C880B990B0E940A1668
:1019D00020E030E040E058E30E94BE1620E030E016
:1019E0004AEF54E40E94BE166093100270931102F5
:1019F00080931202909313026091730470917404A7
:101A0000072E000C880B990B0E940A1620E030E08C
:101A100040E058E30E94BE1620E030E044E353E487
:101A20000E94BE1660932B0670932C0680932D06A1
:101A300090932E066091750470917604072E000C29
:101A4000880B990B0E940A1620E030E040E058E332
:101A50000E94BE1620E030E044E353E40E94BE162C
:101A60006093F9057093FA058093FB059093FC054C
:101A70006091770470917804072E000C880B990B05
:101A80000E940A1620E030E040E058E30E94BE16B3
:101A900020E030E044E353E40E94BE166093CB059F
:101AA0007093CC058093CD059093CE058FE296E0A0
:101AB0000E9401048DEF95E00E9401048FEC95E0F7
:101AC0000E94010481EA95E00E94010483E795E009
:101AD0000E94010485E495E00E94010460916B0579
:101AE00070916C0580916D0590916E050E94D715DF
:101AF0007093F5026093F4026091990570919A05D4
:101B000080919B0590919C050E94D7157093F302DC
:101B10006093F20260914105709142058091430506
:101B2000909144050E94D7157093F1026093F002E2
:101B30004091EE025091EF022091EE023091EF02BF
:101B4000485E5340285E3340429FC001439F900D42
:101B5000529F900D112462EE74E00E94311768517B
:101B60007C4F7093ED026093EC028091EC029091B7
:101B7000ED026091F2027091F3022091F402309133
:101B8000F5024091F0025091F102861B970B820FF3
:101B9000931F841B950B9093E5028093E402809140
:101BA000EC029091ED026091F2027091F30240918B
:101BB000F4025091F5022091F0023091F102861B5F
:101BC000970B841B950B820F931F9093E7028093D2
:101BD000E6026091EC027091ED028091F202909128
:101BE000F3024091F4025091F5022091F0023091FD
:101BF000F102860F971F841B950B821B930B90930A
:101C0000E9028093E8026091EC027091ED0280910C
:101C1000F2029091F3024091F4025091F50220916A
:101C2000F0023091F102860F971F840F951F820FEB
:101C3000931F9093EB028093EA028091EC029091C3
:101C4000ED028091FA029091FB02A091FC02B0910A
:101C5000FD02880F991FFC01EC51FD4F28EE33E087
:101C600031832083C7E5D6E000E010E048E8242E69
:101C7000312C58E5C52E52E0D52E64EB862E912CE2
:101C8000A12CB12CF801EE0FFF1FEC51FD4F60812C
:101C900071817E0132E0E31AF108603282E0780758
:101CA000C4F577FD06C0653B71052CF064EB70E070
:101CB00002C060E070E0FE01319780812101481A86
:101CC000510887FD5394440C551C440C551C052C9D
:101CD000000C6608770888819601281B310987FD6A
:101CE0003395220F331F220F331FC901330FAA0B65
:101CF000BB0B9C01AD012419350946095709DB01CD
:101D0000B6D6A50194018DD6420E531E641E751ED3
:101D1000B201C701B6DA0F5F1F4F239604301105D9
:101D200009F0B0CFFF91EF91DF91CF91BF91AF91CB
:101D30009F918F917F916F915F914F913F912F91E3
:101D40001F910F91FF90EF90DF90CF90BF90AF90D9
:101D50009F908F907F906F905F904F903F902F90CB
:101D60000F900BBE0F900FBE0F901F90189500970D
:101D700069F0FC0101900020E9F73197AF01481BA1
:101D8000590BBC018EEB93E00C943A0180E090E09B
:101D90000895E091BE03F091BF030190F081E02D22
:101DA000682F8EEB93E019948F929F92AF92BF921F
:101DB0000F931F93CF93DF93CDB7DEB7A1970FB6E5
:101DC000F894DEBF0FBECDBF19A2423008F44AE03E
:101DD0008E010F5D1F4F842E912CA12CB12CA501DB
:101DE00094014BD6E62FB901CA0101501109EA301E
:101DF00014F4E05D01C0E95CD801EC93232B242BA3
:101E0000252B69F7C801B3DFA1960FB6F894DEBFA2
:101E10000FBECDBFDF91CF911F910F91BF90AF90BB
:101E20009F908F9008954F925F926F927F928F92C2
:101E30009F92AF92BF92CF92DF92EF92FF926B018F
:101E40007C019B01AC01FDD7882319F089EA92E05F
:101E500018C046015701E894B7F82FEF3FEF4FE75E
:101E60005FE7C501B401EDD781110EC02FEF3FEF41
:101E70004FE75FE7C501B40196D618162CF48DEA3A
:101E800092E075DF7C016DC02FEF3FEF4FE75FE41D
:101E9000C701B6016FD718161CF481EB92E0F1CFA1
:101EA0002FEF3FEF4FE75FECC701B6017CD687FD10
:101EB000F4CF20E030E0A901C701B60174D687FF56
:101EC00008C08DE266DF5C01F7FAF094F7F8F09451
:101ED00002C0A12CB12C2AE037ED43EA5BE3C70135
:101EE000B601FDD52B013C0167D66B017C0190D674
:101EF0009B01AC01C301B201F1D52B013C014AE0C9
:101F0000C701B60151DF7C01EA0CFB1C8EE241DF08
:101F1000E80EF91E20E030E040E251E4C301B201D6
:101F20002DD72B013C0148D64B01A12CB12C4AE006
:101F3000C501B40139DFE80EF91EC501B40168D648
:101F40009B01AC01C301B201C9D520E030E040E201
:101F500051E414D731D680E090E04AE025DFE80E66
:101F6000F91E85E592E003DF8E0D9F1DFF90EF9037
:101F7000DF90CF90BF90AF909F908F907F906F90A9
:101F80005F904F900895EF92FF920F931F93CF931E
:101F9000DF931F921F92CDB7DEB7182F81E0809399
:101FA000BD03109361061092BC031092BB0384EA38
:101FB00094E049835A830E94CF038091BB034981F7
:101FC0005A81813208F046C090919A039111FCCF5A
:101FD00092E090939A03109299039FEF9093980345
:101FE0001092970380939603ABE9B3E026E733E0C2
:101FF000F9019E2F921B981718F49D919193F9CF98
:102000001092750380917503912F990F892B8093FE
:10201000750380917403813061F410927403809190
:1020200075038093BB008091BC0083FDF8CF85ECE5
:1020300001C085EE8093BC0080919A038230E1F369
:10204000809198038F3F31F080919803803211F096
:10205000809198031092BC031092BB031092BD03B1
:1020600080919A038111FCCF81E080939A03809341
:1020700099039FEF909398031092970395E09093A4
:1020800096038093750380917503110F812B8093C4
:10209000750380917403813061F410927403809110
:1020A00075038093BB008091BC0083FDF8CF85EC65
:1020B00001C085EE8093BC0080919A038130E1F3EA
:1020C00080919703863018F48091970301C086E0D1
:1020D000A6E7B3E024E533E0F9019E2F921B9817A1
:1020E00018F49D919193F9CF10925303809352036A
:1020F0008630F0F37A018A010A5F1F4F84EA94E088
:102100000E948403F70181937F01E017F107B1F783
:102110000F900F90DF91CF911F910F91FF90EF9053
:10212000089590E0FC01E853FE4F2491FC01EE5726
:10213000FE4F8491882399F090E0880F991FFC014D
:10214000E859FE4FA591B491FC01E25BFE4F8591E9
:1021500094918FB7F894EC91E22BEC938FBF089594
:10216000789484B5826084BD84B5816084BD85B572
:10217000826085BD85B5816085BD80916E0081607E
:1021800080936E0010928100809181008260809324
:102190008100809181008160809381008091800026
:1021A0008160809380008091B10084608093B10051
:1021B0008091B00081608093B00080919100826036
:1021C0008093910080919100816080939100809133
:1021D00090008160809390008091A1008260809344
:1021E000A1008091A10081608093A1008091A00056
:1021F00081608093A0008091210182608093210101
:102200008091210181608093210180912001816072
:102210008093200180917A00846080937A0080917D
:102220007A00826080937A0080917A008160809346
:102230007A0080917A00806880937A001092C100C1
:102240006DE270E085E596E00E94AB016CE270E023
:1022500088E596E00E94AB0162E370E08BE596E0D2
:102260000E94AB0163E370E08EE596E00E94AB0153
:10227000C5E5D6E068EE73E0CE0103D8239626E0EC
:10228000C136D207B9F7E091CE03F091CF0382E0D7
:102290008083E091CA03F091CB031082E091CC03DC
:1022A000F091CD0380E180831092D603E091D203B8
:1022B000F091D30386E08083E091D003F091D103C5
:1022C000808180618083E091D003F091D10380818F
:1022D00088608083E091D003F091D1038081806891
:1022E0008083E091D003F091D10380818F7D808342
:1022F00000E010E020EF31E440E050E060EF71ECEE
:102300008FE296E0D9D900E010E020EF31E440E020
:1023100050E060EF71EC8DEF95E0CED900E010E079
:1023200028EC33E440E050E060EF71EC8FEC95E096
:10233000C3D900E010E028EC33E440E050E068EC62
:1023400073EC81EA95E0B8D900E010E028EC33E4C2
:1023500040E050E068EC73EC83E795E0ADD900E035
:1023600010E028EC33E440E050E068EC73EC85E4E6
:1023700095E0A2D98FE296E00BDA8DEF95E008DACE
:102380008FEC95E005DA81EA95E002DA83E795E0E3
:10239000FFD985E495E0FCD9CCE28C2FC2DECF5F7B
:1023A000C533D9F760E080E30E94250560E081E352
:1023B0000E94250561E084E30E94250561E085E334
:1023C0000E94250561E08EE20E94250561E08FE212
:1023D0000E94250580E58093A30410925303109278
:1023E00052031092BC031092BB0310929A0381E037
:1023F000809399031092740361E084E10E942505A3
:1024000061E085E10E9425058091B9008E7F80936F
:10241000B9008091B9008D7F8093B90088E48093E2
:10242000B80085E48093BC008DED96E090930102A6
:102430008093000280916A008C7F816080936A00A3
:10244000EC9A82EC96E090930302809302028091D2
:102450006A00837F846080936A00ED9A87EA96E041
:1024600090930B0280930A02809169008F738064BD
:1024700080936900EB9A8CE896E090930902809330
:102480000802809169008F7C806180936900EA9ADC
:10249000F8941092B0001092B1001092B2008CE942
:1024A0008093B3008FEF8093B3008091B00082607F
:1024B0008093B0008091B10087608093B1008091DB
:1024C000700082608093700078944BE654E067E37C
:1024D0008091A30458DD43E754E06DE38091A304A9
:1024E00052DD84E492E043DCC090B602D090B702A3
:1024F0000D2C000CEE08FF08F7FE0BC08DE249DC46
:1025000066277727CB016C197D098E099F094AE060
:1025100003C04AE0C701B60147DC85E592E027DC4D
:1025200088E592E024DC6091230670912406809176
:1025300025069091260677DC8EE692E018DC609105
:102540002706709128068091290690912A066BDC57
:1025500080E692E00CDC60912B0670912C06809155
:102560002D0690912E065FDC83E892E000DC6091FE
:102570009D0570919E0580919F059091A00553DC6B
:1025800080E992E0F4DB6091990570919A05809161
:102590009B0590919C0547DC85E592E0E8DB0E9475
:1025A00067064B015C0184EFC82EDD24D394E12C37
:1025B000F12C0E946706DC01CB0188199909AA0950
:1025C000BB09883E9340A105B10558F081E0C81AC7
:1025D000D108E108F10828EE820E23E0921EA11C2A
:1025E000B11CC114D104E104F10419F70E940903DC
:1025F0006CCF0F931F93CF93DF931092C103109270
:10260000C00388EE93E0A0E0B0E08093C203909313
:10261000C303A093C403B093C50324E232E0309314
:10262000BF032093BE0325EC30E03093CB0320930F
:10263000CA0324EC30E03093CD032093CC0320EC8C
:1026400030E03093CF032093CE0321EC30E0309381
:10265000D1032093D00322EC30E03093D3032093B6
:10266000D20326EC30E03093D5032093D4031092AC
:10267000D7031092D8031092D9031092DA0320E501
:102680002093A3041092A7041092A6048093A80498
:102690009093A904A093AA04B093AB0486E392E0BC
:1026A0009093A5048093A40480914005A5E5B6E02D
:1026B0009FEF40ED57E0803378F48C93282F30E083
:1026C000F901EE0FFF1F2E0F3F1FF901E055FB4FE1
:1026D000528341838F5F01C09C93139626E0A136FD
:1026E000B20749F7809340051092AE061092AF06EC
:1026F0001092B0061092B1062CE132E03093A7069A
:102700002093A60684E996E09093A5068093A406FC
:1027100080E996E09093A9068093A80680E090E077
:10272000A0E8BFE38093980690939906A0939A0639
:10273000B0939B0680939C0690939D06A0939E0663
:10274000B0939F068093A0069093A106A093A20643
:10275000B093A30610928006109281061092820612
:102760001092830646E656E0509379064093780629
:1027700048E152E0509377064093760630937B060B
:1027800020937A0680936A0690936B06A0936C065A
:10279000B0936D0680936E0690936F06A0937006BB
:1027A000B09371068093720690937306A09374069B
:1027B000B093750610924506109246061092470691
:1027C00010924806C7E2D6E0D0933E06C0933D067D
:1027D0002BE236E030933C0620933B0623E236E0C2
:1027E0003093400620933F0640E050E060EA70E4FA
:1027F00040932F0650933006609331067093320653
:102800008093330690933406A0933506B093360632
:102810008093370690933806A0933906B0933A0612
:1028200010921306109214061092150610921606B6
:10283000E2E6F6E0F0930C06E0930B0629EF35E0B4
:1028400030930A062093090625EF35E030930E06F3
:1028500020930D064093FD055093FE056093FF0500
:10286000709300068093010690930206A0930306DE
:10287000B09304068093050690930606A09307067E
:10288000B09308061092E5051092E6051092E70550
:102890001092E80524E132E03093DE052093DD0557
:1028A0000BEC15E01093DC050093DB0507EC15E05D
:1028B0001093E0050093DF054093CF055093D005BA
:1028C0006093D1057093D2058093D3059093D4057E
:1028D000A093D505B093D6058093D7059093D805DE
:1028E000A093D905B093DA051092B7051092B805F8
:1028F0001092B9051092BA0589E995E09093B00558
:102900008093AF058DE995E09093AE058093AD057A
:10291000D093B205C093B10540E050E060E271E4AD
:102920004093A1055093A2056093A3057093A4055D
:1029300080E090E0A0E0B0E48093A5059093A60528
:10294000A093A705B093A8058093A9059093AA0525
:10295000A093AB05B093AC051092890510928A053F
:1029600010928B0510928C05CBE6D5E0D0938205B2
:10297000C0938105CFE6D5E0D0938005C0937F0555
:10298000F0938405E0938305409373055093740599
:10299000609375057093760580937705909378051D
:1029A000A0937905B0937A0580937B0590937C057D
:1029B000A0937D05B0937E0510925B0510925C0597
:1029C00010925D0510925E05E1E4F5E0F093540588
:1029D000E0935305E0E1F2E0F0935205E0935105F6
:1029E0003093560520935505409345055093460571
:1029F00060934705709348058093490590934A0575
:102A0000A0934B05B0934C0580934D0590934E05D4
:102A1000A0934F05B0935005DF91CF911F910F9177
:102A20000895052E97FB16F400940FD057FD05D09E
:102A300024D007FC02D046F408C05095409530954C
:102A400021953F4F4F4F5F4F08959095809570951A
:102A500061957F4F8F4F9F4F089531D0A59F900D67
:102A6000B49F900DA49F800D911D11240895B7FF70
:102A7000F4CFF3DF821B930B0895A1E21A2EAA1B59
:102A8000BB1BFD010DC0AA1FBB1FEE1FFF1FA2171E
:102A9000B307E407F50720F0A21BB30BE40BF50B1B
:102AA000661F771F881F991F1A9469F760957095A4
:102AB000809590959B01AC01BD01CF010895A29F27
:102AC000B001B39FC001A39F700D811D1124911D02
:102AD000B29F700D811D1124911D08955058BB2780
:102AE000AA270ED00DC1FED030F003D120F031F472
:102AF0009F3F11F41EF4F3C00EF4E095E7FBE9C02C
:102B0000E92F0FD180F3BA1762077307840795077F
:102B100018F071F49EF527C10EF4E0950B2EBA2F34
:102B2000A02D0B01B90190010C01CA01A0011124D3
:102B3000FF27591B99F0593F50F4503E68F11A167F
:102B4000F040A22F232F342F4427585FF3CF469510
:102B500037952795A795F0405395C9F77EF41F1632
:102B6000BA0B620B730B840BBAF09150A1F0FF0FFC
:102B7000BB1F661F771F881FC2F70EC0BA0F621FE8
:102B8000731F841F48F4879577956795B795F795D8
:102B90009E3F08F0B3CF9395880F08F09927EE0F6A
:102BA00097958795089571D008F481E0089504D031
:102BB0006894B111D9C00895BCD088F09F5790F0A7
:102BC000B92F9927B751A0F0D1F0660F771F881F52
:102BD000991F1AF0BA95C9F712C0B13081F0C3D06D
:102BE000B1E00895C0C0672F782F8827B85F39F00B
:102BF000B93FCCF3869577956795B395D9F73EF4B1
:102C000090958095709561957F4F8F4F9F4F089558
:102C1000E89409C097FB3EF4909580957095619576
:102C20007F4F8F4F9F4F9923A9F0F92F96E9BB272C
:102C30009395F695879577956795B795F111F8CFA8
:102C4000FAF4BB0F11F460FF1BC06F5F7F4F8F4F13
:102C50009F4F16C0882311F096E911C0772321F009
:102C60009EE8872F762F05C0662371F096E8862FA1
:102C700070E060E02AF09A95660F771F881FDAF7F8
:102C8000880F9695879597F90895990F0008550F25
:102C9000AA0BE0E8FEEF16161706E807F907C0F0E2
:102CA00012161306E407F50798F0621B730B840BEA
:102CB000950B39F40A2661F0232B242B252B21F4C4
:102CC00008950A2609F4A140A6958FEF811D811D64
:102CD000089597F99F6780E870E060E008959FEF9E
:102CE00080EC089500240A941616170618060906A3
:102CF000089500240A941216130614060506089572
:102D0000092E0394000C11F4882352F0BB0F40F4F9
:102D1000BF2B11F460FF04C06F5F7F4F8F4F9F4F39
:102D2000089557FD9058440F551F59F05F3F71F0BB
:102D30004795880F97FB991F61F09F3F79F0879522
:102D40000895121613061406551FF2CF4695F1DFAB
:102D500008C0161617061806991FF1CF869571053B
:102D6000610508940895E894BB2766277727CB016F
:102D700097F908958ADF08F48FEF08950BD0C0CF3C
:102D8000B1DF28F0B6DF18F0952309F0A2CFA7CF66
:102D90001124EACFC6DFA0F3959FD1F3950F50E041
:102DA000551F629FF001729FBB27F00DB11D639FFD
:102DB000AA27F00DB11DAA1F649F6627B00DA11DA3
:102DC000661F829F2227B00DA11D621F739FB00D49
:102DD000A11D621F839FA00D611D221F749F3327B9
:102DE000A00D611D231F849F600D211D822F762F52
:102DF0006A2F11249F5750408AF0E1F088234AF04F
:102E0000EE0FFF1FBB1F661F771F881F915050409A
:102E1000A9F79E3F510570F05CCFA6CF5F3FECF362
:102E2000983EDCF3869577956795B795F795E79586
:102E30009F5FC1F7FE2B880F911D9695879597F997
:102E4000089523DF880B990B0895991B79E004C03E
:102E5000991F961708F0961B881F7A95C9F78095D9
:102E6000089597FB072E16F4009406D077FD08D03E
:102E700013D007FC05D03EF4909581959F4F08959F
:102E8000709561957F4F0895EE0FFF1F881F8BBFD0
:102E90000790F691E02D1994AA1BBB1B51E107C0C6
:102EA000AA1FBB1FA617B70710F0A61BB70B881FDA
:102EB000991F5A95A9F780959095BC01CD01089569
:0C2EC00081E090E0F89400C0F894FFCF8F
:102ECC0041034103410341034103410341034103D6
:102EDC000000803F0000803F0000803F0000803FEA
:102EEC000000000043023A01650189029601740159
:102EFC00880100000000CF03A003FE0374039803B5
:102F0C00840375036368616E6E656C5F70697463CE
:102F1C0068203A20000D0A0045787065637465647A
:102F2C005069746368616E676C65203A2000506963
:102F3C0074636865787065637465644779726F2033
:102F4C003A200050697463684779726F203A200008
:102F5C0070697463685468726F74746C65546F43F1
:102F6C0068616E6765203A20006E616E00696E665E
:062F7C00006F7666000004
:00000001FF
